{
  "_format": "hh-sol-artifact-1",
  "contractName": "ProjectEscrow",
  "sourceName": "contracts/escrow/ProjectEscrow.sol",
  "abi": [
    {
      "inputs": [
        {
          "internalType": "address",
          "name": "admin",
          "type": "address"
        }
      ],
      "stateMutability": "nonpayable",
      "type": "constructor"
    },
    {
      "inputs": [],
      "name": "AccessControlBadConfirmation",
      "type": "error"
    },
    {
      "inputs": [
        {
          "internalType": "address",
          "name": "account",
          "type": "address"
        },
        {
          "internalType": "bytes32",
          "name": "neededRole",
          "type": "bytes32"
        }
      ],
      "name": "AccessControlUnauthorizedAccount",
      "type": "error"
    },
    {
      "inputs": [],
      "name": "ReentrancyGuardReentrantCall",
      "type": "error"
    },
    {
      "anonymous": false,
      "inputs": [
        {
          "indexed": true,
          "internalType": "uint256",
          "name": "escrowId",
          "type": "uint256"
        },
        {
          "indexed": true,
          "internalType": "uint256",
          "name": "projectId",
          "type": "uint256"
        },
        {
          "indexed": true,
          "internalType": "address",
          "name": "client",
          "type": "address"
        },
        {
          "indexed": false,
          "internalType": "address",
          "name": "freelancer",
          "type": "address"
        },
        {
          "indexed": false,
          "internalType": "uint256",
          "name": "amount",
          "type": "uint256"
        },
        {
          "indexed": false,
          "internalType": "uint256",
          "name": "timestamp",
          "type": "uint256"
        }
      ],
      "name": "EscrowCreated",
      "type": "event"
    },
    {
      "anonymous": false,
      "inputs": [
        {
          "indexed": true,
          "internalType": "uint256",
          "name": "escrowId",
          "type": "uint256"
        },
        {
          "indexed": true,
          "internalType": "address",
          "name": "initiator",
          "type": "address"
        },
        {
          "indexed": false,
          "internalType": "string",
          "name": "reason",
          "type": "string"
        },
        {
          "indexed": false,
          "internalType": "uint256",
          "name": "timestamp",
          "type": "uint256"
        }
      ],
      "name": "EscrowDisputed",
      "type": "event"
    },
    {
      "anonymous": false,
      "inputs": [
        {
          "indexed": true,
          "internalType": "uint256",
          "name": "escrowId",
          "type": "uint256"
        },
        {
          "indexed": false,
          "internalType": "uint256",
          "name": "amount",
          "type": "uint256"
        },
        {
          "indexed": false,
          "internalType": "uint256",
          "name": "timestamp",
          "type": "uint256"
        }
      ],
      "name": "EscrowFunded",
      "type": "event"
    },
    {
      "anonymous": false,
      "inputs": [
        {
          "indexed": true,
          "internalType": "uint256",
          "name": "escrowId",
          "type": "uint256"
        },
        {
          "indexed": true,
          "internalType": "address",
          "name": "recipient",
          "type": "address"
        },
        {
          "indexed": false,
          "internalType": "uint256",
          "name": "amount",
          "type": "uint256"
        },
        {
          "indexed": false,
          "internalType": "uint256",
          "name": "timestamp",
          "type": "uint256"
        }
      ],
      "name": "EscrowRefunded",
      "type": "event"
    },
    {
      "anonymous": false,
      "inputs": [
        {
          "indexed": true,
          "internalType": "uint256",
          "name": "escrowId",
          "type": "uint256"
        },
        {
          "indexed": true,
          "internalType": "address",
          "name": "recipient",
          "type": "address"
        },
        {
          "indexed": false,
          "internalType": "uint256",
          "name": "amount",
          "type": "uint256"
        },
        {
          "indexed": false,
          "internalType": "uint256",
          "name": "timestamp",
          "type": "uint256"
        }
      ],
      "name": "EscrowReleased",
      "type": "event"
    },
    {
      "anonymous": false,
      "inputs": [
        {
          "indexed": true,
          "internalType": "bytes32",
          "name": "role",
          "type": "bytes32"
        },
        {
          "indexed": true,
          "internalType": "bytes32",
          "name": "previousAdminRole",
          "type": "bytes32"
        },
        {
          "indexed": true,
          "internalType": "bytes32",
          "name": "newAdminRole",
          "type": "bytes32"
        }
      ],
      "name": "RoleAdminChanged",
      "type": "event"
    },
    {
      "anonymous": false,
      "inputs": [
        {
          "indexed": true,
          "internalType": "bytes32",
          "name": "role",
          "type": "bytes32"
        },
        {
          "indexed": true,
          "internalType": "address",
          "name": "account",
          "type": "address"
        },
        {
          "indexed": true,
          "internalType": "address",
          "name": "sender",
          "type": "address"
        }
      ],
      "name": "RoleGranted",
      "type": "event"
    },
    {
      "anonymous": false,
      "inputs": [
        {
          "indexed": true,
          "internalType": "bytes32",
          "name": "role",
          "type": "bytes32"
        },
        {
          "indexed": true,
          "internalType": "address",
          "name": "account",
          "type": "address"
        },
        {
          "indexed": true,
          "internalType": "address",
          "name": "sender",
          "type": "address"
        }
      ],
      "name": "RoleRevoked",
      "type": "event"
    },
    {
      "inputs": [],
      "name": "ADMIN_ROLE",
      "outputs": [
        {
          "internalType": "bytes32",
          "name": "",
          "type": "bytes32"
        }
      ],
      "stateMutability": "view",
      "type": "function"
    },
    {
      "inputs": [],
      "name": "ARBITRATOR_ROLE",
      "outputs": [
        {
          "internalType": "bytes32",
          "name": "",
          "type": "bytes32"
        }
      ],
      "stateMutability": "view",
      "type": "function"
    },
    {
      "inputs": [],
      "name": "DEFAULT_ADMIN_ROLE",
      "outputs": [
        {
          "internalType": "bytes32",
          "name": "",
          "type": "bytes32"
        }
      ],
      "stateMutability": "view",
      "type": "function"
    },
    {
      "inputs": [],
      "name": "PLATFORM_ROLE",
      "outputs": [
        {
          "internalType": "bytes32",
          "name": "",
          "type": "bytes32"
        }
      ],
      "stateMutability": "view",
      "type": "function"
    },
    {
      "inputs": [
        {
          "internalType": "uint256",
          "name": "_projectId",
          "type": "uint256"
        },
        {
          "internalType": "address",
          "name": "_client",
          "type": "address"
        },
        {
          "internalType": "address",
          "name": "_freelancer",
          "type": "address"
        },
        {
          "internalType": "uint256",
          "name": "_amount",
          "type": "uint256"
        }
      ],
      "name": "createEscrow",
      "outputs": [
        {
          "internalType": "uint256",
          "name": "escrowId",
          "type": "uint256"
        }
      ],
      "stateMutability": "nonpayable",
      "type": "function"
    },
    {
      "inputs": [
        {
          "internalType": "uint256",
          "name": "_escrowId",
          "type": "uint256"
        },
        {
          "internalType": "string",
          "name": "_reason",
          "type": "string"
        }
      ],
      "name": "disputeEscrow",
      "outputs": [],
      "stateMutability": "nonpayable",
      "type": "function"
    },
    {
      "inputs": [],
      "name": "feeRecipient",
      "outputs": [
        {
          "internalType": "address",
          "name": "",
          "type": "address"
        }
      ],
      "stateMutability": "view",
      "type": "function"
    },
    {
      "inputs": [
        {
          "internalType": "uint256",
          "name": "_escrowId",
          "type": "uint256"
        }
      ],
      "name": "fundEscrow",
      "outputs": [],
      "stateMutability": "payable",
      "type": "function"
    },
    {
      "inputs": [
        {
          "internalType": "address",
          "name": "_client",
          "type": "address"
        }
      ],
      "name": "getClientEscrows",
      "outputs": [
        {
          "components": [
            {
              "internalType": "uint256",
              "name": "id",
              "type": "uint256"
            },
            {
              "internalType": "uint256",
              "name": "projectId",
              "type": "uint256"
            },
            {
              "internalType": "address",
              "name": "client",
              "type": "address"
            },
            {
              "internalType": "address",
              "name": "freelancer",
              "type": "address"
            },
            {
              "internalType": "uint256",
              "name": "amount",
              "type": "uint256"
            },
            {
              "internalType": "enum IProjectEscrow.EscrowStatus",
              "name": "status",
              "type": "uint8"
            },
            {
              "internalType": "uint256",
              "name": "createdAt",
              "type": "uint256"
            },
            {
              "internalType": "uint256",
              "name": "updatedAt",
              "type": "uint256"
            }
          ],
          "internalType": "struct IProjectEscrow.Escrow[]",
          "name": "",
          "type": "tuple[]"
        }
      ],
      "stateMutability": "view",
      "type": "function"
    },
    {
      "inputs": [
        {
          "internalType": "uint256",
          "name": "_escrowId",
          "type": "uint256"
        }
      ],
      "name": "getEscrow",
      "outputs": [
        {
          "components": [
            {
              "internalType": "uint256",
              "name": "id",
              "type": "uint256"
            },
            {
              "internalType": "uint256",
              "name": "projectId",
              "type": "uint256"
            },
            {
              "internalType": "address",
              "name": "client",
              "type": "address"
            },
            {
              "internalType": "address",
              "name": "freelancer",
              "type": "address"
            },
            {
              "internalType": "uint256",
              "name": "amount",
              "type": "uint256"
            },
            {
              "internalType": "enum IProjectEscrow.EscrowStatus",
              "name": "status",
              "type": "uint8"
            },
            {
              "internalType": "uint256",
              "name": "createdAt",
              "type": "uint256"
            },
            {
              "internalType": "uint256",
              "name": "updatedAt",
              "type": "uint256"
            }
          ],
          "internalType": "struct IProjectEscrow.Escrow",
          "name": "",
          "type": "tuple"
        }
      ],
      "stateMutability": "view",
      "type": "function"
    },
    {
      "inputs": [
        {
          "internalType": "address",
          "name": "_freelancer",
          "type": "address"
        }
      ],
      "name": "getFreelancerEscrows",
      "outputs": [
        {
          "components": [
            {
              "internalType": "uint256",
              "name": "id",
              "type": "uint256"
            },
            {
              "internalType": "uint256",
              "name": "projectId",
              "type": "uint256"
            },
            {
              "internalType": "address",
              "name": "client",
              "type": "address"
            },
            {
              "internalType": "address",
              "name": "freelancer",
              "type": "address"
            },
            {
              "internalType": "uint256",
              "name": "amount",
              "type": "uint256"
            },
            {
              "internalType": "enum IProjectEscrow.EscrowStatus",
              "name": "status",
              "type": "uint8"
            },
            {
              "internalType": "uint256",
              "name": "createdAt",
              "type": "uint256"
            },
            {
              "internalType": "uint256",
              "name": "updatedAt",
              "type": "uint256"
            }
          ],
          "internalType": "struct IProjectEscrow.Escrow[]",
          "name": "",
          "type": "tuple[]"
        }
      ],
      "stateMutability": "view",
      "type": "function"
    },
    {
      "inputs": [
        {
          "internalType": "uint256",
          "name": "_projectId",
          "type": "uint256"
        }
      ],
      "name": "getProjectEscrows",
      "outputs": [
        {
          "components": [
            {
              "internalType": "uint256",
              "name": "id",
              "type": "uint256"
            },
            {
              "internalType": "uint256",
              "name": "projectId",
              "type": "uint256"
            },
            {
              "internalType": "address",
              "name": "client",
              "type": "address"
            },
            {
              "internalType": "address",
              "name": "freelancer",
              "type": "address"
            },
            {
              "internalType": "uint256",
              "name": "amount",
              "type": "uint256"
            },
            {
              "internalType": "enum IProjectEscrow.EscrowStatus",
              "name": "status",
              "type": "uint8"
            },
            {
              "internalType": "uint256",
              "name": "createdAt",
              "type": "uint256"
            },
            {
              "internalType": "uint256",
              "name": "updatedAt",
              "type": "uint256"
            }
          ],
          "internalType": "struct IProjectEscrow.Escrow[]",
          "name": "",
          "type": "tuple[]"
        }
      ],
      "stateMutability": "view",
      "type": "function"
    },
    {
      "inputs": [
        {
          "internalType": "bytes32",
          "name": "role",
          "type": "bytes32"
        }
      ],
      "name": "getRoleAdmin",
      "outputs": [
        {
          "internalType": "bytes32",
          "name": "",
          "type": "bytes32"
        }
      ],
      "stateMutability": "view",
      "type": "function"
    },
    {
      "inputs": [
        {
          "internalType": "bytes32",
          "name": "role",
          "type": "bytes32"
        },
        {
          "internalType": "address",
          "name": "account",
          "type": "address"
        }
      ],
      "name": "grantRole",
      "outputs": [],
      "stateMutability": "nonpayable",
      "type": "function"
    },
    {
      "inputs": [
        {
          "internalType": "bytes32",
          "name": "role",
          "type": "bytes32"
        },
        {
          "internalType": "address",
          "name": "account",
          "type": "address"
        }
      ],
      "name": "hasRole",
      "outputs": [
        {
          "internalType": "bool",
          "name": "",
          "type": "bool"
        }
      ],
      "stateMutability": "view",
      "type": "function"
    },
    {
      "inputs": [],
      "name": "platformFeeRate",
      "outputs": [
        {
          "internalType": "uint256",
          "name": "",
          "type": "uint256"
        }
      ],
      "stateMutability": "view",
      "type": "function"
    },
    {
      "inputs": [
        {
          "internalType": "uint256",
          "name": "_escrowId",
          "type": "uint256"
        }
      ],
      "name": "refundEscrow",
      "outputs": [],
      "stateMutability": "nonpayable",
      "type": "function"
    },
    {
      "inputs": [
        {
          "internalType": "uint256",
          "name": "_escrowId",
          "type": "uint256"
        }
      ],
      "name": "releaseEscrow",
      "outputs": [],
      "stateMutability": "nonpayable",
      "type": "function"
    },
    {
      "inputs": [
        {
          "internalType": "bytes32",
          "name": "role",
          "type": "bytes32"
        },
        {
          "internalType": "address",
          "name": "callerConfirmation",
          "type": "address"
        }
      ],
      "name": "renounceRole",
      "outputs": [],
      "stateMutability": "nonpayable",
      "type": "function"
    },
    {
      "inputs": [
        {
          "internalType": "uint256",
          "name": "_escrowId",
          "type": "uint256"
        },
        {
          "internalType": "uint8",
          "name": "_clientShare",
          "type": "uint8"
        },
        {
          "internalType": "uint8",
          "name": "_freelancerShare",
          "type": "uint8"
        }
      ],
      "name": "resolveDispute",
      "outputs": [],
      "stateMutability": "nonpayable",
      "type": "function"
    },
    {
      "inputs": [
        {
          "internalType": "bytes32",
          "name": "role",
          "type": "bytes32"
        },
        {
          "internalType": "address",
          "name": "account",
          "type": "address"
        }
      ],
      "name": "revokeRole",
      "outputs": [],
      "stateMutability": "nonpayable",
      "type": "function"
    },
    {
      "inputs": [
        {
          "internalType": "address",
          "name": "_feeRecipient",
          "type": "address"
        }
      ],
      "name": "setFeeRecipient",
      "outputs": [],
      "stateMutability": "nonpayable",
      "type": "function"
    },
    {
      "inputs": [
        {
          "internalType": "uint256",
          "name": "_feeRate",
          "type": "uint256"
        }
      ],
      "name": "setPlatformFeeRate",
      "outputs": [],
      "stateMutability": "nonpayable",
      "type": "function"
    },
    {
      "inputs": [
        {
          "internalType": "bytes4",
          "name": "interfaceId",
          "type": "bytes4"
        }
      ],
      "name": "supportsInterface",
      "outputs": [
        {
          "internalType": "bool",
          "name": "",
          "type": "bool"
        }
      ],
      "stateMutability": "view",
      "type": "function"
    }
  ],
  "bytecode": "0x60806040523480156200001157600080fd5b506040516200254d3803806200254d83398101604081905262000034916200017a565b6001805562000045600082620000cb565b50620000727fa49807205ce4d355092ef5a8a18f56e8913cf4a201fbe287825b095693c2177582620000cb565b506200009f7f16ceee8289685dd2a02b9c8ae81d2df373176ce53519e6284e2a2950d6546ffa82620000cb565b5060fa600755600880546001600160a01b0319166001600160a01b0392909216919091179055620001ac565b6000828152602081815260408083206001600160a01b038516845290915281205460ff1662000170576000838152602081815260408083206001600160a01b03861684529091529020805460ff19166001179055620001273390565b6001600160a01b0316826001600160a01b0316847f2f8788117e7eff1d82e926ec794901d17c78024a50270940304540a733656f0d60405160405180910390a450600162000174565b5060005b92915050565b6000602082840312156200018d57600080fd5b81516001600160a01b0381168114620001a557600080fd5b9392505050565b61239180620001bc6000396000f3fe60806040526004361061014b5760003560e01c80639cea0787116100b6578063d7d3de7b1161006f578063d7d3de7b14610409578063e74b981b14610429578063ed65316414610449578063eec1ca7214610469578063eeca08f014610489578063fe51c9311461049f57600080fd5b80639cea0787146103405780639f5644fd14610374578063a217fddf14610394578063c2f1bf07146103a9578063c9c31af5146103d6578063d547741f146103e957600080fd5b80634690484011610108578063469048401461024557806370824c5c1461027d57806375b238fc1461029f5780637d19e596146102d357806391d1485414610300578063927fef2e1461032057600080fd5b806301ffc9a7146101505780630ad0e25414610185578063248a9ca3146101a75780632f2ff15d146101e5578063356f9dfd1461020557806336568abe14610225575b600080fd5b34801561015c57600080fd5b5061017061016b366004611e84565b6104bf565b60405190151581526020015b60405180910390f35b34801561019157600080fd5b506101a56101a0366004611ecb565b6104f6565b005b3480156101b357600080fd5b506101d76101c2366004611f07565b60009081526020819052604090206001015490565b60405190815260200161017c565b3480156101f157600080fd5b506101a5610200366004611f37565b610927565b34801561021157600080fd5b506101a5610220366004611f07565b61094c565b34801561023157600080fd5b506101a5610240366004611f37565b610bc6565b34801561025157600080fd5b50600854610265906001600160a01b031681565b6040516001600160a01b03909116815260200161017c565b34801561028957600080fd5b506101d760008051602061233c83398151915281565b3480156102ab57600080fd5b506101d77fa49807205ce4d355092ef5a8a18f56e8913cf4a201fbe287825b095693c2177581565b3480156102df57600080fd5b506102f36102ee366004611f07565b610bfe565b60405161017c9190611ff0565b34801561030c57600080fd5b5061017061031b366004611f37565b610cda565b34801561032c57600080fd5b506101a561033b366004611f07565b610d03565b34801561034c57600080fd5b506101d77f16ceee8289685dd2a02b9c8ae81d2df373176ce53519e6284e2a2950d6546ffa81565b34801561038057600080fd5b506101a561038f366004611fff565b610d97565b3480156103a057600080fd5b506101d7600081565b3480156103b557600080fd5b506103c96103c436600461207b565b610ef1565b60405161017c9190612096565b6101a56103e4366004611f07565b6110b6565b3480156103f557600080fd5b506101a5610404366004611f37565b611297565b34801561041557600080fd5b506103c961042436600461207b565b6112bc565b34801561043557600080fd5b506101a561044436600461207b565b611479565b34801561045557600080fd5b506101a5610464366004611f07565b611531565b34801561047557600080fd5b506103c9610484366004611f07565b6117d3565b34801561049557600080fd5b506101d760075481565b3480156104ab57600080fd5b506101d76104ba3660046120e5565b611986565b60006001600160e01b03198216637965db0b60e01b14806104f057506301ffc9a760e01b6001600160e01b03198316145b92915050565b7f16ceee8289685dd2a02b9c8ae81d2df373176ce53519e6284e2a2950d6546ffa61052081611cd1565b610528611cdb565b60008481526003602052604090208054851461055f5760405162461bcd60e51b815260040161055690612129565b60405180910390fd5b6004600582015460ff16600481111561057a5761057a611f63565b146105dc5760405162461bcd60e51b815260206004820152602c60248201527f50726f6a656374457363726f773a20657363726f77206e6f7420696e2044697360448201526b70757465642073746174757360a01b6064820152608401610556565b60646105e88486612183565b60ff16111561064f5760405162461bcd60e51b815260206004820152602d60248201527f50726f6a656374457363726f773a20736861726573206d7573742073756d207460448201526c6f20313030206f72206c65737360981b6064820152608401610556565b60058101805460ff19166002179055426007820155600481015460009060649061067d9060ff88169061219c565b61068791906121b3565b9050600060648560ff1684600401546106a0919061219c565b6106aa91906121b3565b90506000818385600401546106bf91906121d5565b6106c991906121d5565b905082156107d15760028401546040516000916001600160a01b03169085908381818185875af1925050503d8060008114610720576040519150601f19603f3d011682016040523d82523d6000602084013e610725565b606091505b50509050806107845760405162461bcd60e51b815260206004820152602560248201527f50726f6a656374457363726f773a20636c69656e74207472616e736665722066604482015264185a5b195960da1b6064820152608401610556565b6002850154604080518681524260208201526001600160a01b03909216918b917fa6dc039ff751ad9725f7237e080b41d06166a7be987e9564cc289645ee7b7ede910160405180910390a3505b81156108995760038401546040516000916001600160a01b03169084908381818185875af1925050503d8060008114610826576040519150601f19603f3d011682016040523d82523d6000602084013e61082b565b606091505b505090508061084c5760405162461bcd60e51b8152600401610556906121e8565b6003850154604080518581524260208201526001600160a01b03909216918b917f07dd78b97459a0754e75d3d53bbd26afd8a683f317c40b50eea07d05c49f966b910160405180910390a3505b8015610914576008546040516000916001600160a01b03169083908381818185875af1925050503d80600081146108ec576040519150601f19603f3d011682016040523d82523d6000602084013e6108f1565b606091505b50509050806109125760405162461bcd60e51b815260040161055690612231565b505b5050505061092160018055565b50505050565b60008281526020819052604090206001015461094281611cd1565b6109218383611d05565b610954611cdb565b6000818152600360205260409020805482146109825760405162461bcd60e51b815260040161055690612129565b6001600582015460ff16600481111561099d5761099d611f63565b146109ba5760405162461bcd60e51b815260040161055690612273565b60038101546001600160a01b03163314806109e857506109e860008051602061233c83398151915233610cda565b80610a185750610a187f16ceee8289685dd2a02b9c8ae81d2df373176ce53519e6284e2a2950d6546ffa33610cda565b610a9c5760405162461bcd60e51b815260206004820152604960248201527f50726f6a656374457363726f773a206f6e6c7920667265656c616e6365722c2060448201527f706c6174666f726d2c206f722061726269747261746f722063616e20726566756064820152686e6420657363726f7760b81b608482015260a401610556565b60058101805460ff19166003179055426007820155600281015460048201546040516000926001600160a01b031691908381818185875af1925050503d8060008114610b04576040519150601f19603f3d011682016040523d82523d6000602084013e610b09565b606091505b5050905080610b685760405162461bcd60e51b815260206004820152602560248201527f50726f6a656374457363726f773a20726566756e64207472616e736665722066604482015264185a5b195960da1b6064820152608401610556565b60028201546004830154604080519182524260208301526001600160a01b039092169185917fa6dc039ff751ad9725f7237e080b41d06166a7be987e9564cc289645ee7b7ede910160405180910390a35050610bc360018055565b50565b6001600160a01b0381163314610bef5760405163334bd91960e11b815260040160405180910390fd5b610bf98282611d97565b505050565b610c06611e3f565b6000828152600360205260409020548214610c335760405162461bcd60e51b815260040161055690612129565b6000828152600360208181526040928390208351610100810185528154815260018201549281019290925260028101546001600160a01b03908116948301949094529182015490921660608301526004808201546080840152600582015460a084019160ff90911690811115610cab57610cab611f63565b6004811115610cbc57610cbc611f63565b81526006820154602082015260079091015460409091015292915050565b6000918252602082815260408084206001600160a01b0393909316845291905290205460ff1690565b7fa49807205ce4d355092ef5a8a18f56e8913cf4a201fbe287825b095693c21775610d2d81611cd1565b6103e8821115610d915760405162461bcd60e51b815260206004820152602960248201527f50726f6a656374457363726f773a2066656520726174652063616e6e6f74206560448201526878636565642031302560b81b6064820152608401610556565b50600755565b600083815260036020526040902080548414610dc55760405162461bcd60e51b815260040161055690612129565b6001600582015460ff166004811115610de057610de0611f63565b14610dfd5760405162461bcd60e51b815260040161055690612273565b60028101546001600160a01b0316331480610e24575060038101546001600160a01b031633145b610e965760405162461bcd60e51b815260206004820152603b60248201527f50726f6a656374457363726f773a206f6e6c7920636c69656e74206f7220667260448201527f65656c616e6365722063616e206469737075746520657363726f7700000000006064820152608401610556565b60058101805460ff191660041790554260078201819055604051339186917f63fb99712cb03bc92fe352d93d39fed1d4079892d6c5a4f4a1a615fbc935e14491610ee391889188916122bd565b60405180910390a350505050565b6001600160a01b0381166000908152600560209081526040808320805482518185028101850190935280835260609493830182828015610f5057602002820191906000526020600020905b815481526020019060010190808311610f3c575b505050505090506000815167ffffffffffffffff811115610f7357610f736122f6565b604051908082528060200260200182016040528015610fac57816020015b610f99611e3f565b815260200190600190039081610f915790505b50905060005b82518110156110ae5760036000848381518110610fd157610fd161230c565b60209081029190910181015182528181019290925260409081016000208151610100810183528154815260018201549381019390935260028101546001600160a01b0390811692840192909252600381015490911660608301526004808201546080840152600582015460a084019160ff9091169081111561105557611055611f63565b600481111561106657611066611f63565b8152602001600682015481526020016007820154815250508282815181106110905761109061230c565b602002602001018190525080806110a690612322565b915050610fb2565b509392505050565b6110be611cdb565b6000818152600360205260409020805482146110ec5760405162461bcd60e51b815260040161055690612129565b6000600582015460ff16600481111561110757611107611f63565b146111685760405162461bcd60e51b815260206004820152602b60248201527f50726f6a656374457363726f773a20657363726f77206e6f7420696e2043726560448201526a617465642073746174757360a81b6064820152608401610556565b60028101546001600160a01b031633146111d75760405162461bcd60e51b815260206004820152602a60248201527f50726f6a656374457363726f773a206f6e6c7920636c69656e742063616e2066604482015269756e6420657363726f7760b01b6064820152608401610556565b8060040154341461123a5760405162461bcd60e51b815260206004820152602760248201527f50726f6a656374457363726f773a20696e636f72726563742066756e64696e6760448201526608185b5bdd5b9d60ca1b6064820152608401610556565b60058101805460ff19166001179055426007820181905560408051348152602081019290925283917f8dff3cf02c5b34f1bbcae6061488e20d55563d782e18f3af44cb099f1783b2fb910160405180910390a250610bc360018055565b6000828152602081905260409020600101546112b281611cd1565b6109218383611d97565b6001600160a01b038116600090815260066020908152604080832080548251818502810185019093528083526060949383018282801561131b57602002820191906000526020600020905b815481526020019060010190808311611307575b505050505090506000815167ffffffffffffffff81111561133e5761133e6122f6565b60405190808252806020026020018201604052801561137757816020015b611364611e3f565b81526020019060019003908161135c5790505b50905060005b82518110156110ae576003600084838151811061139c5761139c61230c565b60209081029190910181015182528181019290925260409081016000208151610100810183528154815260018201549381019390935260028101546001600160a01b0390811692840192909252600381015490911660608301526004808201546080840152600582015460a084019160ff9091169081111561142057611420611f63565b600481111561143157611431611f63565b81526020016006820154815260200160078201548152505082828151811061145b5761145b61230c565b6020026020010181905250808061147190612322565b91505061137d565b7fa49807205ce4d355092ef5a8a18f56e8913cf4a201fbe287825b095693c217756114a381611cd1565b6001600160a01b03821661150e5760405162461bcd60e51b815260206004820152602c60248201527f50726f6a656374457363726f773a20696e76616c69642066656520726563697060448201526b69656e74206164647265737360a01b6064820152608401610556565b50600880546001600160a01b0319166001600160a01b0392909216919091179055565b611539611cdb565b6000818152600360205260409020805482146115675760405162461bcd60e51b815260040161055690612129565b6001600582015460ff16600481111561158257611582611f63565b1461159f5760405162461bcd60e51b815260040161055690612273565b60028101546001600160a01b03163314806115cd57506115cd60008051602061233c83398151915233610cda565b61163f5760405162461bcd60e51b815260206004820152603960248201527f50726f6a656374457363726f773a206f6e6c7920636c69656e74206f7220706c60448201527f6174666f726d2063616e2072656c6561736520657363726f77000000000000006064820152608401610556565b60058101805460ff19166002179055426007808301919091555460048201546000916127109161166f919061219c565b61167991906121b3565b9050600081836004015461168d91906121d5565b6008546040519192506000916001600160a01b039091169084908381818185875af1925050503d80600081146116df576040519150601f19603f3d011682016040523d82523d6000602084013e6116e4565b606091505b50509050806117055760405162461bcd60e51b815260040161055690612231565b60038401546040516000916001600160a01b03169084908381818185875af1925050503d8060008114611754576040519150601f19603f3d011682016040523d82523d6000602084013e611759565b606091505b505090508061177a5760405162461bcd60e51b8152600401610556906121e8565b6003850154604080518581524260208201526001600160a01b039092169188917f07dd78b97459a0754e75d3d53bbd26afd8a683f317c40b50eea07d05c49f966b910160405180910390a35050505050610bc360018055565b600081815260046020908152604080832080548251818502810185019093528083526060949383018282801561182857602002820191906000526020600020905b815481526020019060010190808311611814575b505050505090506000815167ffffffffffffffff81111561184b5761184b6122f6565b60405190808252806020026020018201604052801561188457816020015b611871611e3f565b8152602001906001900390816118695790505b50905060005b82518110156110ae57600360008483815181106118a9576118a961230c565b60209081029190910181015182528181019290925260409081016000208151610100810183528154815260018201549381019390935260028101546001600160a01b0390811692840192909252600381015490911660608301526004808201546080840152600582015460a084019160ff9091169081111561192d5761192d611f63565b600481111561193e5761193e611f63565b8152602001600682015481526020016007820154815250508282815181106119685761196861230c565b6020026020010181905250808061197e90612322565b91505061188a565b600060008051602061233c8339815191526119a081611cd1565b6001600160a01b038516611a045760405162461bcd60e51b815260206004820152602560248201527f50726f6a656374457363726f773a20696e76616c696420636c69656e74206164604482015264647265737360d81b6064820152608401610556565b6001600160a01b038416611a6c5760405162461bcd60e51b815260206004820152602960248201527f50726f6a656374457363726f773a20696e76616c696420667265656c616e636560448201526872206164647265737360b81b6064820152608401610556565b60008311611ad15760405162461bcd60e51b815260206004820152602c60248201527f50726f6a656374457363726f773a20616d6f756e74206d75737420626520677260448201526b06561746572207468616e20360a41b6064820152608401610556565b60028054906000611ae183612322565b9190505591506000604051806101000160405280848152602001888152602001876001600160a01b03168152602001866001600160a01b0316815260200185815260200160006004811115611b3857611b38611f63565b81526020014281526020014281525090508060036000858152602001908152602001600020600082015181600001556020820151816001015560408201518160020160006101000a8154816001600160a01b0302191690836001600160a01b0316021790555060608201518160030160006101000a8154816001600160a01b0302191690836001600160a01b031602179055506080820151816004015560a08201518160050160006101000a81548160ff02191690836004811115611bff57611bff611f63565b021790555060c082015160068281019190915560e0909201516007909101556000888152600460209081526040808320805460018082018355918552838520018890556001600160a01b038b81168086526005855283862080548085018255908752858720018a9055908b1680865295845282852080549283018155855293839020018790558051938452908301879052429083015290889085907f77d95d7d4cd9f44f1426d042e302c95fd08504da9f966a1eda7b5f08c5404a949060600160405180910390a45050949350505050565b610bc38133611e02565b600260015403611cfe57604051633ee5aeb560e01b815260040160405180910390fd5b6002600155565b6000611d118383610cda565b611d8f576000838152602081815260408083206001600160a01b03861684529091529020805460ff19166001179055611d473390565b6001600160a01b0316826001600160a01b0316847f2f8788117e7eff1d82e926ec794901d17c78024a50270940304540a733656f0d60405160405180910390a45060016104f0565b5060006104f0565b6000611da38383610cda565b15611d8f576000838152602081815260408083206001600160a01b0386168085529252808320805460ff1916905551339286917ff6391f5c32d9c69d2a47ea670b442974b53935d1edc7fd64eb21e047a839171b9190a45060016104f0565b611e0c8282610cda565b611e3b5760405163e2517d3f60e01b81526001600160a01b038216600482015260248101839052604401610556565b5050565b604080516101008101825260008082526020820181905291810182905260608101829052608081018290529060a0820190815260200160008152602001600081525090565b600060208284031215611e9657600080fd5b81356001600160e01b031981168114611eae57600080fd5b9392505050565b803560ff81168114611ec657600080fd5b919050565b600080600060608486031215611ee057600080fd5b83359250611ef060208501611eb5565b9150611efe60408501611eb5565b90509250925092565b600060208284031215611f1957600080fd5b5035919050565b80356001600160a01b0381168114611ec657600080fd5b60008060408385031215611f4a57600080fd5b82359150611f5a60208401611f20565b90509250929050565b634e487b7160e01b600052602160045260246000fd5b8051825260208101516020830152604081015160018060a01b03808216604085015280606084015116606085015250506080810151608083015260a081015160058110611fd657634e487b7160e01b600052602160045260246000fd5b60a083015260c0818101519083015260e090810151910152565b61010081016104f08284611f79565b60008060006040848603121561201457600080fd5b83359250602084013567ffffffffffffffff8082111561203357600080fd5b818601915086601f83011261204757600080fd5b81358181111561205657600080fd5b87602082850101111561206857600080fd5b6020830194508093505050509250925092565b60006020828403121561208d57600080fd5b611eae82611f20565b6020808252825182820181905260009190848201906040850190845b818110156120d9576120c5838551611f79565b9284019261010092909201916001016120b2565b50909695505050505050565b600080600080608085870312156120fb57600080fd5b8435935061210b60208601611f20565b925061211960408601611f20565b9396929550929360600135925050565b60208082526024908201527f50726f6a656374457363726f773a20657363726f7720646f6573206e6f7420656040820152631e1a5cdd60e21b606082015260800190565b634e487b7160e01b600052601160045260246000fd5b60ff81811683821601908111156104f0576104f061216d565b80820281158282048414176104f0576104f061216d565b6000826121d057634e487b7160e01b600052601260045260246000fd5b500490565b818103818111156104f0576104f061216d565b60208082526029908201527f50726f6a656374457363726f773a20667265656c616e636572207472616e7366604082015268195c8819985a5b195960ba1b606082015260800190565b60208082526022908201527f50726f6a656374457363726f773a20666565207472616e73666572206661696c604082015261195960f21b606082015260800190565b6020808252602a908201527f50726f6a656374457363726f773a20657363726f77206e6f7420696e2046756e6040820152696465642073746174757360b01b606082015260800190565b604081528260408201528284606083013760006060848301015260006060601f19601f8601168301019050826020830152949350505050565b634e487b7160e01b600052604160045260246000fd5b634e487b7160e01b600052603260045260246000fd5b6000600182016123345761233461216d565b506001019056fe797343f8d6a29aafeb3aaf0910a8973e0081c60c2f6c1f775cd9f76ea348fc1ea26469706673582212209532f23fbac03d2862331da2d2e45bee284d3fed7e7a02193eb4e9f37449e89c64736f6c63430008140033",
  "linkReferences": {},
  "deployedLinkReferences": {}
}