{
  "_format": "hh-sol-artifact-1",
  "contractName": "SkillVerification",
  "sourceName": "contracts/core/SkillVerification.sol",
  "abi": [
    {
      "inputs": [
        {
          "internalType": "address",
          "name": "admin",
          "type": "address"
        },
        {
          "internalType": "address",
          "name": "userRegistry",
          "type": "address"
        }
      ],
      "stateMutability": "nonpayable",
      "type": "constructor"
    },
    {
      "inputs": [],
      "name": "AccessControlBadConfirmation",
      "type": "error"
    },
    {
      "inputs": [
        {
          "internalType": "address",
          "name": "account",
          "type": "address"
        },
        {
          "internalType": "bytes32",
          "name": "neededRole",
          "type": "bytes32"
        }
      ],
      "name": "AccessControlUnauthorizedAccount",
      "type": "error"
    },
    {
      "anonymous": false,
      "inputs": [
        {
          "indexed": true,
          "internalType": "bytes32",
          "name": "role",
          "type": "bytes32"
        },
        {
          "indexed": true,
          "internalType": "bytes32",
          "name": "previousAdminRole",
          "type": "bytes32"
        },
        {
          "indexed": true,
          "internalType": "bytes32",
          "name": "newAdminRole",
          "type": "bytes32"
        }
      ],
      "name": "RoleAdminChanged",
      "type": "event"
    },
    {
      "anonymous": false,
      "inputs": [
        {
          "indexed": true,
          "internalType": "bytes32",
          "name": "role",
          "type": "bytes32"
        },
        {
          "indexed": true,
          "internalType": "address",
          "name": "account",
          "type": "address"
        },
        {
          "indexed": true,
          "internalType": "address",
          "name": "sender",
          "type": "address"
        }
      ],
      "name": "RoleGranted",
      "type": "event"
    },
    {
      "anonymous": false,
      "inputs": [
        {
          "indexed": true,
          "internalType": "bytes32",
          "name": "role",
          "type": "bytes32"
        },
        {
          "indexed": true,
          "internalType": "address",
          "name": "account",
          "type": "address"
        },
        {
          "indexed": true,
          "internalType": "address",
          "name": "sender",
          "type": "address"
        }
      ],
      "name": "RoleRevoked",
      "type": "event"
    },
    {
      "anonymous": false,
      "inputs": [
        {
          "indexed": true,
          "internalType": "uint256",
          "name": "skillId",
          "type": "uint256"
        },
        {
          "indexed": false,
          "internalType": "string",
          "name": "name",
          "type": "string"
        },
        {
          "indexed": false,
          "internalType": "string",
          "name": "category",
          "type": "string"
        },
        {
          "indexed": false,
          "internalType": "uint256",
          "name": "timestamp",
          "type": "uint256"
        }
      ],
      "name": "SkillAdded",
      "type": "event"
    },
    {
      "anonymous": false,
      "inputs": [
        {
          "indexed": true,
          "internalType": "uint256",
          "name": "attestationId",
          "type": "uint256"
        },
        {
          "indexed": true,
          "internalType": "uint256",
          "name": "skillId",
          "type": "uint256"
        },
        {
          "indexed": true,
          "internalType": "address",
          "name": "owner",
          "type": "address"
        },
        {
          "indexed": false,
          "internalType": "uint256",
          "name": "timestamp",
          "type": "uint256"
        }
      ],
      "name": "SkillAttestationCreated",
      "type": "event"
    },
    {
      "anonymous": false,
      "inputs": [
        {
          "indexed": true,
          "internalType": "uint256",
          "name": "attestationId",
          "type": "uint256"
        },
        {
          "indexed": false,
          "internalType": "enum ISkillVerification.SkillVerificationStatus",
          "name": "status",
          "type": "uint8"
        },
        {
          "indexed": false,
          "internalType": "uint256",
          "name": "timestamp",
          "type": "uint256"
        }
      ],
      "name": "SkillAttestationStatusUpdated",
      "type": "event"
    },
    {
      "anonymous": false,
      "inputs": [
        {
          "indexed": true,
          "internalType": "uint256",
          "name": "attestationId",
          "type": "uint256"
        },
        {
          "indexed": true,
          "internalType": "address",
          "name": "attester",
          "type": "address"
        },
        {
          "indexed": false,
          "internalType": "uint256",
          "name": "score",
          "type": "uint256"
        },
        {
          "indexed": false,
          "internalType": "uint256",
          "name": "timestamp",
          "type": "uint256"
        }
      ],
      "name": "SkillAttestationVerified",
      "type": "event"
    },
    {
      "inputs": [],
      "name": "ADMIN_ROLE",
      "outputs": [
        {
          "internalType": "bytes32",
          "name": "",
          "type": "bytes32"
        }
      ],
      "stateMutability": "view",
      "type": "function"
    },
    {
      "inputs": [],
      "name": "DEFAULT_ADMIN_ROLE",
      "outputs": [
        {
          "internalType": "bytes32",
          "name": "",
          "type": "bytes32"
        }
      ],
      "stateMutability": "view",
      "type": "function"
    },
    {
      "inputs": [],
      "name": "PLATFORM_ROLE",
      "outputs": [
        {
          "internalType": "bytes32",
          "name": "",
          "type": "bytes32"
        }
      ],
      "stateMutability": "view",
      "type": "function"
    },
    {
      "inputs": [],
      "name": "VERIFIER_ROLE",
      "outputs": [
        {
          "internalType": "bytes32",
          "name": "",
          "type": "bytes32"
        }
      ],
      "stateMutability": "view",
      "type": "function"
    },
    {
      "inputs": [
        {
          "internalType": "string",
          "name": "_name",
          "type": "string"
        },
        {
          "internalType": "string",
          "name": "_category",
          "type": "string"
        },
        {
          "internalType": "string",
          "name": "_metadata",
          "type": "string"
        }
      ],
      "name": "addSkill",
      "outputs": [
        {
          "internalType": "uint256",
          "name": "skillId",
          "type": "uint256"
        }
      ],
      "stateMutability": "nonpayable",
      "type": "function"
    },
    {
      "inputs": [
        {
          "internalType": "uint256",
          "name": "_skillId",
          "type": "uint256"
        },
        {
          "internalType": "string",
          "name": "_evidence",
          "type": "string"
        }
      ],
      "name": "createSkillAttestation",
      "outputs": [
        {
          "internalType": "uint256",
          "name": "attestationId",
          "type": "uint256"
        }
      ],
      "stateMutability": "nonpayable",
      "type": "function"
    },
    {
      "inputs": [
        {
          "internalType": "bytes32",
          "name": "role",
          "type": "bytes32"
        }
      ],
      "name": "getRoleAdmin",
      "outputs": [
        {
          "internalType": "bytes32",
          "name": "",
          "type": "bytes32"
        }
      ],
      "stateMutability": "view",
      "type": "function"
    },
    {
      "inputs": [
        {
          "internalType": "uint256",
          "name": "_skillId",
          "type": "uint256"
        }
      ],
      "name": "getSkill",
      "outputs": [
        {
          "components": [
            {
              "internalType": "uint256",
              "name": "id",
              "type": "uint256"
            },
            {
              "internalType": "string",
              "name": "name",
              "type": "string"
            },
            {
              "internalType": "string",
              "name": "category",
              "type": "string"
            },
            {
              "internalType": "string",
              "name": "metadata",
              "type": "string"
            }
          ],
          "internalType": "struct ISkillVerification.Skill",
          "name": "",
          "type": "tuple"
        }
      ],
      "stateMutability": "view",
      "type": "function"
    },
    {
      "inputs": [
        {
          "internalType": "uint256",
          "name": "_attestationId",
          "type": "uint256"
        }
      ],
      "name": "getSkillAttestation",
      "outputs": [
        {
          "components": [
            {
              "internalType": "uint256",
              "name": "id",
              "type": "uint256"
            },
            {
              "internalType": "uint256",
              "name": "skillId",
              "type": "uint256"
            },
            {
              "internalType": "address",
              "name": "owner",
              "type": "address"
            },
            {
              "internalType": "address[]",
              "name": "attesters",
              "type": "address[]"
            },
            {
              "internalType": "uint256",
              "name": "score",
              "type": "uint256"
            },
            {
              "internalType": "enum ISkillVerification.SkillVerificationStatus",
              "name": "status",
              "type": "uint8"
            },
            {
              "internalType": "string",
              "name": "evidence",
              "type": "string"
            },
            {
              "internalType": "uint256",
              "name": "createdAt",
              "type": "uint256"
            },
            {
              "internalType": "uint256",
              "name": "updatedAt",
              "type": "uint256"
            }
          ],
          "internalType": "struct ISkillVerification.SkillAttestation",
          "name": "",
          "type": "tuple"
        }
      ],
      "stateMutability": "view",
      "type": "function"
    },
    {
      "inputs": [
        {
          "internalType": "uint256",
          "name": "_skillId",
          "type": "uint256"
        }
      ],
      "name": "getSkillAttestations",
      "outputs": [
        {
          "components": [
            {
              "internalType": "uint256",
              "name": "id",
              "type": "uint256"
            },
            {
              "internalType": "uint256",
              "name": "skillId",
              "type": "uint256"
            },
            {
              "internalType": "address",
              "name": "owner",
              "type": "address"
            },
            {
              "internalType": "address[]",
              "name": "attesters",
              "type": "address[]"
            },
            {
              "internalType": "uint256",
              "name": "score",
              "type": "uint256"
            },
            {
              "internalType": "enum ISkillVerification.SkillVerificationStatus",
              "name": "status",
              "type": "uint8"
            },
            {
              "internalType": "string",
              "name": "evidence",
              "type": "string"
            },
            {
              "internalType": "uint256",
              "name": "createdAt",
              "type": "uint256"
            },
            {
              "internalType": "uint256",
              "name": "updatedAt",
              "type": "uint256"
            }
          ],
          "internalType": "struct ISkillVerification.SkillAttestation[]",
          "name": "",
          "type": "tuple[]"
        }
      ],
      "stateMutability": "view",
      "type": "function"
    },
    {
      "inputs": [
        {
          "internalType": "string",
          "name": "_category",
          "type": "string"
        }
      ],
      "name": "getSkillsByCategory",
      "outputs": [
        {
          "components": [
            {
              "internalType": "uint256",
              "name": "id",
              "type": "uint256"
            },
            {
              "internalType": "string",
              "name": "name",
              "type": "string"
            },
            {
              "internalType": "string",
              "name": "category",
              "type": "string"
            },
            {
              "internalType": "string",
              "name": "metadata",
              "type": "string"
            }
          ],
          "internalType": "struct ISkillVerification.Skill[]",
          "name": "",
          "type": "tuple[]"
        }
      ],
      "stateMutability": "view",
      "type": "function"
    },
    {
      "inputs": [
        {
          "internalType": "address",
          "name": "_owner",
          "type": "address"
        }
      ],
      "name": "getUserSkillAttestations",
      "outputs": [
        {
          "components": [
            {
              "internalType": "uint256",
              "name": "id",
              "type": "uint256"
            },
            {
              "internalType": "uint256",
              "name": "skillId",
              "type": "uint256"
            },
            {
              "internalType": "address",
              "name": "owner",
              "type": "address"
            },
            {
              "internalType": "address[]",
              "name": "attesters",
              "type": "address[]"
            },
            {
              "internalType": "uint256",
              "name": "score",
              "type": "uint256"
            },
            {
              "internalType": "enum ISkillVerification.SkillVerificationStatus",
              "name": "status",
              "type": "uint8"
            },
            {
              "internalType": "string",
              "name": "evidence",
              "type": "string"
            },
            {
              "internalType": "uint256",
              "name": "createdAt",
              "type": "uint256"
            },
            {
              "internalType": "uint256",
              "name": "updatedAt",
              "type": "uint256"
            }
          ],
          "internalType": "struct ISkillVerification.SkillAttestation[]",
          "name": "",
          "type": "tuple[]"
        }
      ],
      "stateMutability": "view",
      "type": "function"
    },
    {
      "inputs": [
        {
          "internalType": "bytes32",
          "name": "role",
          "type": "bytes32"
        },
        {
          "internalType": "address",
          "name": "account",
          "type": "address"
        }
      ],
      "name": "grantRole",
      "outputs": [],
      "stateMutability": "nonpayable",
      "type": "function"
    },
    {
      "inputs": [
        {
          "internalType": "bytes32",
          "name": "role",
          "type": "bytes32"
        },
        {
          "internalType": "address",
          "name": "account",
          "type": "address"
        }
      ],
      "name": "hasRole",
      "outputs": [
        {
          "internalType": "bool",
          "name": "",
          "type": "bool"
        }
      ],
      "stateMutability": "view",
      "type": "function"
    },
    {
      "inputs": [
        {
          "internalType": "address",
          "name": "_owner",
          "type": "address"
        },
        {
          "internalType": "uint256",
          "name": "_skillId",
          "type": "uint256"
        }
      ],
      "name": "hasVerifiedSkill",
      "outputs": [
        {
          "internalType": "bool",
          "name": "",
          "type": "bool"
        }
      ],
      "stateMutability": "view",
      "type": "function"
    },
    {
      "inputs": [
        {
          "internalType": "bytes32",
          "name": "role",
          "type": "bytes32"
        },
        {
          "internalType": "address",
          "name": "callerConfirmation",
          "type": "address"
        }
      ],
      "name": "renounceRole",
      "outputs": [],
      "stateMutability": "nonpayable",
      "type": "function"
    },
    {
      "inputs": [
        {
          "internalType": "bytes32",
          "name": "role",
          "type": "bytes32"
        },
        {
          "internalType": "address",
          "name": "account",
          "type": "address"
        }
      ],
      "name": "revokeRole",
      "outputs": [],
      "stateMutability": "nonpayable",
      "type": "function"
    },
    {
      "inputs": [
        {
          "internalType": "bytes4",
          "name": "interfaceId",
          "type": "bytes4"
        }
      ],
      "name": "supportsInterface",
      "outputs": [
        {
          "internalType": "bool",
          "name": "",
          "type": "bool"
        }
      ],
      "stateMutability": "view",
      "type": "function"
    },
    {
      "inputs": [
        {
          "internalType": "uint256",
          "name": "_attestationId",
          "type": "uint256"
        },
        {
          "internalType": "enum ISkillVerification.SkillVerificationStatus",
          "name": "_status",
          "type": "uint8"
        }
      ],
      "name": "updateAttestationStatus",
      "outputs": [],
      "stateMutability": "nonpayable",
      "type": "function"
    },
    {
      "inputs": [
        {
          "internalType": "uint256",
          "name": "_attestationId",
          "type": "uint256"
        },
        {
          "internalType": "uint256",
          "name": "_score",
          "type": "uint256"
        }
      ],
      "name": "verifySkillAttestation",
      "outputs": [],
      "stateMutability": "nonpayable",
      "type": "function"
    }
  ],
  "bytecode": "0x60806040523480156200001157600080fd5b50604051620026b5380380620026b583398101604081905262000034916200018f565b62000041600083620000c3565b506200006e7fa49807205ce4d355092ef5a8a18f56e8913cf4a201fbe287825b095693c2177583620000c3565b506200009b7f0ce23c3e399818cfee81a7ab0880f714e53d7672b08df0fa62f2843416e1ea0983620000c3565b50600880546001600160a01b0319166001600160a01b039290921691909117905550620001c7565b6000828152602081815260408083206001600160a01b038516845290915281205460ff1662000168576000838152602081815260408083206001600160a01b03861684529091529020805460ff191660011790556200011f3390565b6001600160a01b0316826001600160a01b0316847f2f8788117e7eff1d82e926ec794901d17c78024a50270940304540a733656f0d60405160405180910390a45060016200016c565b5060005b92915050565b80516001600160a01b03811681146200018a57600080fd5b919050565b60008060408385031215620001a357600080fd5b620001ae8362000172565b9150620001be6020840162000172565b90509250929050565b6124de80620001d76000396000f3fe608060405234801561001057600080fd5b506004361061012c5760003560e01c806375b238fc116100ad578063d3360b0c11610071578063d3360b0c146102d4578063d547741f146102e7578063e6313dd3146102fa578063e7705db61461030d578063f361d1091461033457600080fd5b806375b238fc1461025f5780638aaf26d81461028657806391d1485414610299578063a217fddf146102ac578063bd880fae146102b457600080fd5b806336568abe116100f457806336568abe146101d2578063454fd7bf146101e557806356e34410146101f857806366b3f3861461021857806370824c5c1461023857600080fd5b806301ffc9a71461013157806307afa0f714610159578063248a9ca31461017957806324eec41a146101aa5780632f2ff15d146101bd575b600080fd5b61014461013f366004611c94565b610347565b60405190151581526020015b60405180910390f35b61016c610167366004611ce1565b61037e565b6040516101509190611e5b565b61019c610187366004611ebd565b60009081526020819052604090206001015490565b604051908152602001610150565b61019c6101b8366004611f1f565b610621565b6101d06101cb366004611fb9565b610802565b005b6101d06101e0366004611fb9565b61082d565b61016c6101f3366004611ebd565b610865565b61020b610206366004611fe5565b610b30565b6040516101509190612082565b61022b610226366004611ebd565b610e56565b60405161015091906120d7565b61019c7f797343f8d6a29aafeb3aaf0910a8973e0081c60c2f6c1f775cd9f76ea348fc1e81565b61019c7fa49807205ce4d355092ef5a8a18f56e8913cf4a201fbe287825b095693c2177581565b6101446102943660046120ea565b611011565b6101446102a7366004611fb9565b61127d565b61019c600081565b6102c76102c2366004611ebd565b6112a6565b6040516101509190612114565b6101d06102e2366004612127565b6114e3565b6101d06102f5366004611fb9565b6116a4565b61019c610308366004612149565b6116c9565b61019c7f0ce23c3e399818cfee81a7ab0880f714e53d7672b08df0fa62f2843416e1ea0981565b6101d0610342366004612195565b61199a565b60006001600160e01b03198216637965db0b60e01b148061037857506301ffc9a760e01b6001600160e01b03198316145b92915050565b6001600160a01b03811660009081526005602090815260408083208054825181850281018501909352808352606094938301828280156103dd57602002820191906000526020600020905b8154815260200190600101908083116103c9575b505050505090506000815167ffffffffffffffff811115610400576104006121c9565b60405190808252806020026020018201604052801561043957816020015b610426611bb4565b81526020019060019003908161041e5790505b50905060005b8251811015610619576004600084838151811061045e5761045e6121df565b60209081029190910181015182528181019290925260409081016000208151610120810183528154815260018201548185015260028201546001600160a01b0316818401526003820180548451818702810187019095528085529194929360608601939092908301828280156104fd57602002820191906000526020600020905b81546001600160a01b031681526001909101906020018083116104df575b505050918352505060048201546020820152600582015460409091019060ff16600381111561052e5761052e611d40565b600381111561053f5761053f611d40565b8152602001600682018054610553906121f5565b80601f016020809104026020016040519081016040528092919081815260200182805461057f906121f5565b80156105cc5780601f106105a1576101008083540402835291602001916105cc565b820191906000526020600020905b8154815290600101906020018083116105af57829003601f168201915b50505050508152602001600782015481526020016008820154815250508282815181106105fb576105fb6121df565b602002602001018190525080806106119061222f565b91505061043f565b509392505050565b60007fa49807205ce4d355092ef5a8a18f56e8913cf4a201fbe287825b095693c2177561064d81611a6d565b6001805490600061065d8361222f565b919050559150600060405180608001604052808481526020018a8a8080601f016020809104026020016040519081016040528093929190818152602001838380828437600092019190915250505090825250604080516020601f8b0181900481028201810190925289815291810191908a908a9081908401838280828437600092019190915250505090825250604080516020601f890181900481028201810190925287815291810191908890889081908401838280828437600092018290525093909452505085815260036020908152604090912083518155908301519293508392909150600182019061075290826122a4565b506040820151600282019061076790826122a4565b506060820151600382019061077c90826122a4565b5090505060078787604051610792929190612364565b9081526040519081900360209081018220805460018101825560009182529190200184905583907f65cd40a8fa640495f4a84242e5f996fc348bc243210493f0c0c71529863325f9906107ee908c908c908c908c90429061239d565b60405180910390a250509695505050505050565b60008281526020819052604090206001015461081d81611a6d565b6108278383611a7a565b50505050565b6001600160a01b03811633146108565760405163334bd91960e11b815260040160405180910390fd5b6108608282611b0c565b505050565b600081815260036020526040902054606090821461089e5760405162461bcd60e51b8152600401610895906123d7565b60405180910390fd5b6000828152600660209081526040808320805482518185028101850190935280835291929091908301828280156108f457602002820191906000526020600020905b8154815260200190600101908083116108e0575b505050505090506000815167ffffffffffffffff811115610917576109176121c9565b60405190808252806020026020018201604052801561095057816020015b61093d611bb4565b8152602001906001900390816109355790505b50905060005b82518110156106195760046000848381518110610975576109756121df565b60209081029190910181015182528181019290925260409081016000208151610120810183528154815260018201548185015260028201546001600160a01b031681840152600382018054845181870281018701909552808552919492936060860193909290830182828015610a1457602002820191906000526020600020905b81546001600160a01b031681526001909101906020018083116109f6575b505050918352505060048201546020820152600582015460409091019060ff166003811115610a4557610a45611d40565b6003811115610a5657610a56611d40565b8152602001600682018054610a6a906121f5565b80601f0160208091040260200160405190810160405280929190818152602001828054610a96906121f5565b8015610ae35780601f10610ab857610100808354040283529160200191610ae3565b820191906000526020600020905b815481529060010190602001808311610ac657829003601f168201915b5050505050815260200160078201548152602001600882015481525050828281518110610b1257610b126121df565b60200260200101819052508080610b289061222f565b915050610956565b6060600060078484604051610b46929190612364565b9081526040805191829003602090810183208054808302850183019093528284529190830182828015610b9857602002820191906000526020600020905b815481526020019060010190808311610b84575b505050505090506000815167ffffffffffffffff811115610bbb57610bbb6121c9565b604051908082528060200260200182016040528015610c1757816020015b610c046040518060800160405280600081526020016060815260200160608152602001606081525090565b815260200190600190039081610bd95790505b50905060005b8251811015610e4d5760036000848381518110610c3c57610c3c6121df565b6020026020010151815260200190815260200160002060405180608001604052908160008201548152602001600182018054610c77906121f5565b80601f0160208091040260200160405190810160405280929190818152602001828054610ca3906121f5565b8015610cf05780601f10610cc557610100808354040283529160200191610cf0565b820191906000526020600020905b815481529060010190602001808311610cd357829003601f168201915b50505050508152602001600282018054610d09906121f5565b80601f0160208091040260200160405190810160405280929190818152602001828054610d35906121f5565b8015610d825780601f10610d5757610100808354040283529160200191610d82565b820191906000526020600020905b815481529060010190602001808311610d6557829003601f168201915b50505050508152602001600382018054610d9b906121f5565b80601f0160208091040260200160405190810160405280929190818152602001828054610dc7906121f5565b8015610e145780601f10610de957610100808354040283529160200191610e14565b820191906000526020600020905b815481529060010190602001808311610df757829003601f168201915b505050505081525050828281518110610e2f57610e2f6121df565b60200260200101819052508080610e459061222f565b915050610c1d565b50949350505050565b610e5e611bb4565b6000828152600460205260409020548214610e8b5760405162461bcd60e51b81526004016108959061241e565b6000828152600460209081526040918290208251610120810184528154815260018201548184015260028201546001600160a01b0316818501526003820180548551818602810186019096528086529194929360608601939290830182828015610f1e57602002820191906000526020600020905b81546001600160a01b03168152600190910190602001808311610f00575b505050918352505060048201546020820152600582015460409091019060ff166003811115610f4f57610f4f611d40565b6003811115610f6057610f60611d40565b8152602001600682018054610f74906121f5565b80601f0160208091040260200160405190810160405280929190818152602001828054610fa0906121f5565b8015610fed5780601f10610fc257610100808354040283529160200191610fed565b820191906000526020600020905b815481529060010190602001808311610fd057829003601f168201915b50505050508152602001600782015481526020016008820154815250509050919050565b6001600160a01b03821660009081526005602090815260408083208054825181850281018501909352808352849383018282801561106e57602002820191906000526020600020905b81548152602001906001019080831161105a575b5050505050905060005b815181101561127257600060046000848481518110611099576110996121df565b60209081029190910181015182528181019290925260409081016000208151610120810183528154815260018201548185015260028201546001600160a01b03168184015260038201805484518187028101870190955280855291949293606086019390929083018282801561113857602002820191906000526020600020905b81546001600160a01b0316815260019091019060200180831161111a575b505050918352505060048201546020820152600582015460409091019060ff16600381111561116957611169611d40565b600381111561117a5761117a611d40565b815260200160068201805461118e906121f5565b80601f01602080910402602001604051908101604052809291908181526020018280546111ba906121f5565b80156112075780601f106111dc57610100808354040283529160200191611207565b820191906000526020600020905b8154815290600101906020018083116111ea57829003601f168201915b5050505050815260200160078201548152602001600882015481525050905084816020015114801561124e575060028160a00151600381111561124c5761124c611d40565b145b1561125f5760019350505050610378565b508061126a8161222f565b915050611078565b506000949350505050565b6000918252602082815260408084206001600160a01b0393909316845291905290205460ff1690565b6112d16040518060800160405280600081526020016060815260200160608152602001606081525090565b60008281526003602052604090205482146112fe5760405162461bcd60e51b8152600401610895906123d7565b6003600083815260200190815260200160002060405180608001604052908160008201548152602001600182018054611336906121f5565b80601f0160208091040260200160405190810160405280929190818152602001828054611362906121f5565b80156113af5780601f10611384576101008083540402835291602001916113af565b820191906000526020600020905b81548152906001019060200180831161139257829003601f168201915b505050505081526020016002820180546113c8906121f5565b80601f01602080910402602001604051908101604052809291908181526020018280546113f4906121f5565b80156114415780601f1061141657610100808354040283529160200191611441565b820191906000526020600020905b81548152906001019060200180831161142457829003601f168201915b5050505050815260200160038201805461145a906121f5565b80601f0160208091040260200160405190810160405280929190818152602001828054611486906121f5565b80156114d35780601f106114a8576101008083540402835291602001916114d3565b820191906000526020600020905b8154815290600101906020018083116114b657829003601f168201915b5050505050815250509050919050565b7f0ce23c3e399818cfee81a7ab0880f714e53d7672b08df0fa62f2843416e1ea0961150d81611a6d565b600083815260046020526040902054831461153a5760405162461bcd60e51b81526004016108959061241e565b60648211156115a25760405162461bcd60e51b815260206004820152602e60248201527f536b696c6c566572696669636174696f6e3a2073636f7265206d75737420626560448201526d0206265747765656e20302d3130360941b6064820152608401610895565b600083815260046020526040812090805b600383015481101561161357336001600160a01b03168360030182815481106115de576115de6121df565b6000918252602090912001546001600160a01b0316036116015760019150611613565b8061160b8161222f565b9150506115b3565b508061164157600382018054600181018255600091825260209091200180546001600160a01b031916331790555b6004820184905560058201805460ff191660021790554260088301819055604080518681526020810192909252339187917fd338b561057aee29b3351e94e6f165e666ae956e2f2f43200143fd3dc2944cf8910160405180910390a35050505050565b6000828152602081905260409020600101546116bf81611a6d565b6108278383611b0c565b600854604051630b1fba9160e11b81523360048201526000916001600160a01b03169063163f752290602401602060405180830381865afa158015611712573d6000803e3d6000fd5b505050506040513d601f19601f82011682018060405250810190611736919061246b565b6117915760405162461bcd60e51b815260206004820152602660248201527f536b696c6c566572696669636174696f6e3a2075736572206e6f7420726567696044820152651cdd195c995960d21b6064820152608401610895565b60008481526003602052604090205484146117be5760405162461bcd60e51b8152600401610895906123d7565b600280549060006117ce8361222f565b9091555060408051600080825261014082018352602082018481529282018890523360608301526080820182905260a08201819052929350919060c083016001815260200186868080601f01602080910402602001604051908101604052809392919081815260200183838082843760009201829052509385525050426020808501829052604094850191909152878352600481529183902084518155848301516001820155928401516002840180546001600160a01b0319166001600160a01b03909216919091179055506060830151805193945084936118b69260038501920190611c1a565b506080820151600482015560a082015160058201805460ff191660018360038111156118e4576118e4611d40565b021790555060c082015160068201906118fd90826122a4565b5060e0820151600782015561010090910151600890910155336000818152600560209081526040808320805460018181018355918552838520018890558a845260068352818420805491820181558452919092200185905551879085907ff12b878708b860937fa03b85d313080df0244a4e62a480bcf2069f1b30b74643906119899042815260200190565b60405180910390a450509392505050565b7f0ce23c3e399818cfee81a7ab0880f714e53d7672b08df0fa62f2843416e1ea096119c481611a6d565b60008381526004602052604090205483146119f15760405162461bcd60e51b81526004016108959061241e565b600083815260046020526040902060058101805484919060ff19166001836003811115611a2057611a20611d40565b0217905550426008820181905560405185917fcc6663997d5a810b5ff14d9845a8a993286d2effc2ef7c9bf75f31c4cf3a2f2b91611a5f91879161248d565b60405180910390a250505050565b611a778133611b77565b50565b6000611a86838361127d565b611b04576000838152602081815260408083206001600160a01b03861684529091529020805460ff19166001179055611abc3390565b6001600160a01b0316826001600160a01b0316847f2f8788117e7eff1d82e926ec794901d17c78024a50270940304540a733656f0d60405160405180910390a4506001610378565b506000610378565b6000611b18838361127d565b15611b04576000838152602081815260408083206001600160a01b0386168085529252808320805460ff1916905551339286917ff6391f5c32d9c69d2a47ea670b442974b53935d1edc7fd64eb21e047a839171b9190a4506001610378565b611b81828261127d565b611bb05760405163e2517d3f60e01b81526001600160a01b038216600482015260248101839052604401610895565b5050565b604051806101200160405280600081526020016000815260200160006001600160a01b03168152602001606081526020016000815260200160006003811115611bff57611bff611d40565b81526020016060815260200160008152602001600081525090565b828054828255906000526020600020908101928215611c6f579160200282015b82811115611c6f57825182546001600160a01b0319166001600160a01b03909116178255602090920191600190910190611c3a565b50611c7b929150611c7f565b5090565b5b80821115611c7b5760008155600101611c80565b600060208284031215611ca657600080fd5b81356001600160e01b031981168114611cbe57600080fd5b9392505050565b80356001600160a01b0381168114611cdc57600080fd5b919050565b600060208284031215611cf357600080fd5b611cbe82611cc5565b600081518084526020808501945080840160005b83811015611d355781516001600160a01b031687529582019590820190600101611d10565b509495945050505050565b634e487b7160e01b600052602160045260246000fd5b60048110611d7457634e487b7160e01b600052602160045260246000fd5b9052565b6000815180845260005b81811015611d9e57602081850181015186830182015201611d82565b506000602082860101526020601f19601f83011685010191505092915050565b600061012082518452602083015160208501526040830151611deb60408601826001600160a01b03169052565b506060830151816060860152611e0382860182611cfc565b9150506080830151608085015260a0830151611e2260a0860182611d56565b5060c083015184820360c0860152611e3a8282611d78565b60e08581015190870152610100948501519490950193909352509192915050565b6000602080830181845280855180835260408601915060408160051b870101925083870160005b82811015611eb057603f19888603018452611e9e858351611dbe565b94509285019290850190600101611e82565b5092979650505050505050565b600060208284031215611ecf57600080fd5b5035919050565b60008083601f840112611ee857600080fd5b50813567ffffffffffffffff811115611f0057600080fd5b602083019150836020828501011115611f1857600080fd5b9250929050565b60008060008060008060608789031215611f3857600080fd5b863567ffffffffffffffff80821115611f5057600080fd5b611f5c8a838b01611ed6565b90985096506020890135915080821115611f7557600080fd5b611f818a838b01611ed6565b90965094506040890135915080821115611f9a57600080fd5b50611fa789828a01611ed6565b979a9699509497509295939492505050565b60008060408385031215611fcc57600080fd5b82359150611fdc60208401611cc5565b90509250929050565b60008060208385031215611ff857600080fd5b823567ffffffffffffffff81111561200f57600080fd5b61201b85828601611ed6565b90969095509350505050565b8051825260006020820151608060208501526120466080850182611d78565b90506040830151848203604086015261205f8282611d78565b915050606083015184820360608601526120798282611d78565b95945050505050565b6000602080830181845280855180835260408601915060408160051b870101925083870160005b82811015611eb057603f198886030184526120c5858351612027565b945092850192908501906001016120a9565b602081526000611cbe6020830184611dbe565b600080604083850312156120fd57600080fd5b61210683611cc5565b946020939093013593505050565b602081526000611cbe6020830184612027565b6000806040838503121561213a57600080fd5b50508035926020909101359150565b60008060006040848603121561215e57600080fd5b83359250602084013567ffffffffffffffff81111561217c57600080fd5b61218886828701611ed6565b9497909650939450505050565b600080604083850312156121a857600080fd5b823591506020830135600481106121be57600080fd5b809150509250929050565b634e487b7160e01b600052604160045260246000fd5b634e487b7160e01b600052603260045260246000fd5b600181811c9082168061220957607f821691505b60208210810361222957634e487b7160e01b600052602260045260246000fd5b50919050565b60006001820161224f57634e487b7160e01b600052601160045260246000fd5b5060010190565b601f82111561086057600081815260208120601f850160051c8101602086101561227d5750805b601f850160051c820191505b8181101561229c57828155600101612289565b505050505050565b815167ffffffffffffffff8111156122be576122be6121c9565b6122d2816122cc84546121f5565b84612256565b602080601f83116001811461230757600084156122ef5750858301515b600019600386901b1c1916600185901b17855561229c565b600085815260208120601f198616915b8281101561233657888601518255948401946001909101908401612317565b50858210156123545787850151600019600388901b60f8161c191681555b5050505050600190811b01905550565b8183823760009101908152919050565b81835281816020850137506000828201602090810191909152601f909101601f19169091010190565b6060815260006123b1606083018789612374565b82810360208401526123c4818688612374565b9150508260408301529695505050505050565b60208082526027908201527f536b696c6c566572696669636174696f6e3a20736b696c6c20646f6573206e6f6040820152661d08195e1a5cdd60ca1b606082015260800190565b6020808252602d908201527f536b696c6c566572696669636174696f6e3a206174746573746174696f6e206460408201526c1bd95cc81b9bdd08195e1a5cdd609a1b606082015260800190565b60006020828403121561247d57600080fd5b81518015158114611cbe57600080fd5b6040810161249b8285611d56565b826020830152939250505056fea26469706673582212201a3ff1907211186b18c0046557231f4e17a2e7fcb1ff56f83ec98f622f3e496464736f6c63430008140033",
  "linkReferences": {},
  "deployedLinkReferences": {}
}