{
  "_format": "hh-sol-artifact-1",
  "contractName": "SkillToken",
  "sourceName": "contracts/tokens/SkillToken.sol",
  "abi": [
    {
      "inputs": [
        {
          "internalType": "address",
          "name": "admin",
          "type": "address"
        }
      ],
      "stateMutability": "nonpayable",
      "type": "constructor"
    },
    {
      "inputs": [],
      "name": "AccessControlBadConfirmation",
      "type": "error"
    },
    {
      "inputs": [
        {
          "internalType": "address",
          "name": "account",
          "type": "address"
        },
        {
          "internalType": "bytes32",
          "name": "neededRole",
          "type": "bytes32"
        }
      ],
      "name": "AccessControlUnauthorizedAccount",
      "type": "error"
    },
    {
      "inputs": [
        {
          "internalType": "address",
          "name": "spender",
          "type": "address"
        },
        {
          "internalType": "uint256",
          "name": "allowance",
          "type": "uint256"
        },
        {
          "internalType": "uint256",
          "name": "needed",
          "type": "uint256"
        }
      ],
      "name": "ERC20InsufficientAllowance",
      "type": "error"
    },
    {
      "inputs": [
        {
          "internalType": "address",
          "name": "sender",
          "type": "address"
        },
        {
          "internalType": "uint256",
          "name": "balance",
          "type": "uint256"
        },
        {
          "internalType": "uint256",
          "name": "needed",
          "type": "uint256"
        }
      ],
      "name": "ERC20InsufficientBalance",
      "type": "error"
    },
    {
      "inputs": [
        {
          "internalType": "address",
          "name": "approver",
          "type": "address"
        }
      ],
      "name": "ERC20InvalidApprover",
      "type": "error"
    },
    {
      "inputs": [
        {
          "internalType": "address",
          "name": "receiver",
          "type": "address"
        }
      ],
      "name": "ERC20InvalidReceiver",
      "type": "error"
    },
    {
      "inputs": [
        {
          "internalType": "address",
          "name": "sender",
          "type": "address"
        }
      ],
      "name": "ERC20InvalidSender",
      "type": "error"
    },
    {
      "inputs": [
        {
          "internalType": "address",
          "name": "spender",
          "type": "address"
        }
      ],
      "name": "ERC20InvalidSpender",
      "type": "error"
    },
    {
      "anonymous": false,
      "inputs": [
        {
          "indexed": true,
          "internalType": "address",
          "name": "owner",
          "type": "address"
        },
        {
          "indexed": true,
          "internalType": "address",
          "name": "spender",
          "type": "address"
        },
        {
          "indexed": false,
          "internalType": "uint256",
          "name": "value",
          "type": "uint256"
        }
      ],
      "name": "Approval",
      "type": "event"
    },
    {
      "anonymous": false,
      "inputs": [
        {
          "indexed": true,
          "internalType": "bytes32",
          "name": "role",
          "type": "bytes32"
        },
        {
          "indexed": true,
          "internalType": "bytes32",
          "name": "previousAdminRole",
          "type": "bytes32"
        },
        {
          "indexed": true,
          "internalType": "bytes32",
          "name": "newAdminRole",
          "type": "bytes32"
        }
      ],
      "name": "RoleAdminChanged",
      "type": "event"
    },
    {
      "anonymous": false,
      "inputs": [
        {
          "indexed": true,
          "internalType": "bytes32",
          "name": "role",
          "type": "bytes32"
        },
        {
          "indexed": true,
          "internalType": "address",
          "name": "account",
          "type": "address"
        },
        {
          "indexed": true,
          "internalType": "address",
          "name": "sender",
          "type": "address"
        }
      ],
      "name": "RoleGranted",
      "type": "event"
    },
    {
      "anonymous": false,
      "inputs": [
        {
          "indexed": true,
          "internalType": "bytes32",
          "name": "role",
          "type": "bytes32"
        },
        {
          "indexed": true,
          "internalType": "address",
          "name": "account",
          "type": "address"
        },
        {
          "indexed": true,
          "internalType": "address",
          "name": "sender",
          "type": "address"
        }
      ],
      "name": "RoleRevoked",
      "type": "event"
    },
    {
      "anonymous": false,
      "inputs": [
        {
          "indexed": true,
          "internalType": "address",
          "name": "from",
          "type": "address"
        },
        {
          "indexed": true,
          "internalType": "address",
          "name": "to",
          "type": "address"
        },
        {
          "indexed": false,
          "internalType": "uint256",
          "name": "value",
          "type": "uint256"
        }
      ],
      "name": "Transfer",
      "type": "event"
    },
    {
      "inputs": [],
      "name": "BURNER_ROLE",
      "outputs": [
        {
          "internalType": "bytes32",
          "name": "",
          "type": "bytes32"
        }
      ],
      "stateMutability": "view",
      "type": "function"
    },
    {
      "inputs": [],
      "name": "DEFAULT_ADMIN_ROLE",
      "outputs": [
        {
          "internalType": "bytes32",
          "name": "",
          "type": "bytes32"
        }
      ],
      "stateMutability": "view",
      "type": "function"
    },
    {
      "inputs": [],
      "name": "MAX_SUPPLY",
      "outputs": [
        {
          "internalType": "uint256",
          "name": "",
          "type": "uint256"
        }
      ],
      "stateMutability": "view",
      "type": "function"
    },
    {
      "inputs": [],
      "name": "MINTER_ROLE",
      "outputs": [
        {
          "internalType": "bytes32",
          "name": "",
          "type": "bytes32"
        }
      ],
      "stateMutability": "view",
      "type": "function"
    },
    {
      "inputs": [
        {
          "internalType": "address",
          "name": "owner",
          "type": "address"
        },
        {
          "internalType": "address",
          "name": "spender",
          "type": "address"
        }
      ],
      "name": "allowance",
      "outputs": [
        {
          "internalType": "uint256",
          "name": "",
          "type": "uint256"
        }
      ],
      "stateMutability": "view",
      "type": "function"
    },
    {
      "inputs": [
        {
          "internalType": "address",
          "name": "spender",
          "type": "address"
        },
        {
          "internalType": "uint256",
          "name": "value",
          "type": "uint256"
        }
      ],
      "name": "approve",
      "outputs": [
        {
          "internalType": "bool",
          "name": "",
          "type": "bool"
        }
      ],
      "stateMutability": "nonpayable",
      "type": "function"
    },
    {
      "inputs": [
        {
          "internalType": "address",
          "name": "account",
          "type": "address"
        }
      ],
      "name": "balanceOf",
      "outputs": [
        {
          "internalType": "uint256",
          "name": "",
          "type": "uint256"
        }
      ],
      "stateMutability": "view",
      "type": "function"
    },
    {
      "inputs": [
        {
          "internalType": "uint256",
          "name": "value",
          "type": "uint256"
        }
      ],
      "name": "burn",
      "outputs": [],
      "stateMutability": "nonpayable",
      "type": "function"
    },
    {
      "inputs": [
        {
          "internalType": "address",
          "name": "from",
          "type": "address"
        },
        {
          "internalType": "uint256",
          "name": "amount",
          "type": "uint256"
        }
      ],
      "name": "burnFrom",
      "outputs": [],
      "stateMutability": "nonpayable",
      "type": "function"
    },
    {
      "inputs": [],
      "name": "decimals",
      "outputs": [
        {
          "internalType": "uint8",
          "name": "",
          "type": "uint8"
        }
      ],
      "stateMutability": "view",
      "type": "function"
    },
    {
      "inputs": [
        {
          "internalType": "bytes32",
          "name": "role",
          "type": "bytes32"
        }
      ],
      "name": "getRoleAdmin",
      "outputs": [
        {
          "internalType": "bytes32",
          "name": "",
          "type": "bytes32"
        }
      ],
      "stateMutability": "view",
      "type": "function"
    },
    {
      "inputs": [
        {
          "internalType": "bytes32",
          "name": "role",
          "type": "bytes32"
        },
        {
          "internalType": "address",
          "name": "account",
          "type": "address"
        }
      ],
      "name": "grantRole",
      "outputs": [],
      "stateMutability": "nonpayable",
      "type": "function"
    },
    {
      "inputs": [
        {
          "internalType": "bytes32",
          "name": "role",
          "type": "bytes32"
        },
        {
          "internalType": "address",
          "name": "account",
          "type": "address"
        }
      ],
      "name": "hasRole",
      "outputs": [
        {
          "internalType": "bool",
          "name": "",
          "type": "bool"
        }
      ],
      "stateMutability": "view",
      "type": "function"
    },
    {
      "inputs": [
        {
          "internalType": "address",
          "name": "to",
          "type": "address"
        },
        {
          "internalType": "uint256",
          "name": "amount",
          "type": "uint256"
        }
      ],
      "name": "mint",
      "outputs": [],
      "stateMutability": "nonpayable",
      "type": "function"
    },
    {
      "inputs": [],
      "name": "name",
      "outputs": [
        {
          "internalType": "string",
          "name": "",
          "type": "string"
        }
      ],
      "stateMutability": "view",
      "type": "function"
    },
    {
      "inputs": [],
      "name": "remainingMintableSupply",
      "outputs": [
        {
          "internalType": "uint256",
          "name": "",
          "type": "uint256"
        }
      ],
      "stateMutability": "view",
      "type": "function"
    },
    {
      "inputs": [
        {
          "internalType": "bytes32",
          "name": "role",
          "type": "bytes32"
        },
        {
          "internalType": "address",
          "name": "callerConfirmation",
          "type": "address"
        }
      ],
      "name": "renounceRole",
      "outputs": [],
      "stateMutability": "nonpayable",
      "type": "function"
    },
    {
      "inputs": [
        {
          "internalType": "bytes32",
          "name": "role",
          "type": "bytes32"
        },
        {
          "internalType": "address",
          "name": "account",
          "type": "address"
        }
      ],
      "name": "revokeRole",
      "outputs": [],
      "stateMutability": "nonpayable",
      "type": "function"
    },
    {
      "inputs": [
        {
          "internalType": "bytes4",
          "name": "interfaceId",
          "type": "bytes4"
        }
      ],
      "name": "supportsInterface",
      "outputs": [
        {
          "internalType": "bool",
          "name": "",
          "type": "bool"
        }
      ],
      "stateMutability": "view",
      "type": "function"
    },
    {
      "inputs": [],
      "name": "symbol",
      "outputs": [
        {
          "internalType": "string",
          "name": "",
          "type": "string"
        }
      ],
      "stateMutability": "view",
      "type": "function"
    },
    {
      "inputs": [],
      "name": "totalMinted",
      "outputs": [
        {
          "internalType": "uint256",
          "name": "",
          "type": "uint256"
        }
      ],
      "stateMutability": "view",
      "type": "function"
    },
    {
      "inputs": [],
      "name": "totalSupply",
      "outputs": [
        {
          "internalType": "uint256",
          "name": "",
          "type": "uint256"
        }
      ],
      "stateMutability": "view",
      "type": "function"
    },
    {
      "inputs": [
        {
          "internalType": "address",
          "name": "to",
          "type": "address"
        },
        {
          "internalType": "uint256",
          "name": "value",
          "type": "uint256"
        }
      ],
      "name": "transfer",
      "outputs": [
        {
          "internalType": "bool",
          "name": "",
          "type": "bool"
        }
      ],
      "stateMutability": "nonpayable",
      "type": "function"
    },
    {
      "inputs": [
        {
          "internalType": "address",
          "name": "from",
          "type": "address"
        },
        {
          "internalType": "address",
          "name": "to",
          "type": "address"
        },
        {
          "internalType": "uint256",
          "name": "value",
          "type": "uint256"
        }
      ],
      "name": "transferFrom",
      "outputs": [
        {
          "internalType": "bool",
          "name": "",
          "type": "bool"
        }
      ],
      "stateMutability": "nonpayable",
      "type": "function"
    }
  ],
  "bytecode": "0x60806040523480156200001157600080fd5b50604051620010ad380380620010ad8339810160408190526200003491620001bd565b6040518060400160405280600b81526020016a29b5b4b636102a37b5b2b760a91b8152506040518060400160405280600581526020016414d2d2531360da1b815250816003908162000087919062000294565b50600462000096828262000294565b50620000a8915060009050826200010a565b50620000d57f9f2df0fed2c77648de5860a4cc508cd0818c85b8b8a1ab4ceeef8d981c8956a6826200010a565b50620001027f3c11d16cbaffd01df69ce1c404f6340ee057498f5f00246190ea54220576a848826200010a565b505062000360565b60008281526005602090815260408083206001600160a01b038516845290915281205460ff16620001b35760008381526005602090815260408083206001600160a01b03861684529091529020805460ff191660011790556200016a3390565b6001600160a01b0316826001600160a01b0316847f2f8788117e7eff1d82e926ec794901d17c78024a50270940304540a733656f0d60405160405180910390a4506001620001b7565b5060005b92915050565b600060208284031215620001d057600080fd5b81516001600160a01b0381168114620001e857600080fd5b9392505050565b634e487b7160e01b600052604160045260246000fd5b600181811c908216806200021a57607f821691505b6020821081036200023b57634e487b7160e01b600052602260045260246000fd5b50919050565b601f8211156200028f57600081815260208120601f850160051c810160208610156200026a5750805b601f850160051c820191505b818110156200028b5782815560010162000276565b5050505b505050565b81516001600160401b03811115620002b057620002b0620001ef565b620002c881620002c1845462000205565b8462000241565b602080601f831160018114620003005760008415620002e75750858301515b600019600386901b1c1916600185901b1785556200028b565b600085815260208120601f198616915b82811015620003315788860151825594840194600190910190840162000310565b5085821015620003505787850151600019600388901b60f8161c191681555b5050505050600190811b01905550565b610d3d80620003706000396000f3fe608060405234801561001057600080fd5b50600436106101585760003560e01c806340c10f19116100c3578063a217fddf1161007c578063a217fddf146102ea578063a2309ff8146102f2578063a9059cbb146102fa578063d53913931461030d578063d547741f14610334578063dd62ed3e1461034757600080fd5b806340c10f191461026d57806342966c681461028057806370a082311461029357806379cc6790146102bc57806391d14854146102cf57806395d89b41146102e257600080fd5b8063282c51f311610115578063282c51f3146101f55780632f2ff15d1461021c578063313ce5671461023157806332cb6b0c14610240578063349f0b901461025257806336568abe1461025a57600080fd5b806301ffc9a71461015d57806306fdde0314610185578063095ea7b31461019a57806318160ddd146101ad57806323b872dd146101bf578063248a9ca3146101d2575b600080fd5b61017061016b366004610b06565b610380565b60405190151581526020015b60405180910390f35b61018d6103b7565b60405161017c9190610b37565b6101706101a8366004610ba1565b610449565b6002545b60405190815260200161017c565b6101706101cd366004610bcb565b610461565b6101b16101e0366004610c07565b60009081526005602052604090206001015490565b6101b17f3c11d16cbaffd01df69ce1c404f6340ee057498f5f00246190ea54220576a84881565b61022f61022a366004610c20565b610485565b005b6040516012815260200161017c565b6101b16a52b7d2dcc80cd2e400000081565b6101b16104b0565b61022f610268366004610c20565b6104d0565b61022f61027b366004610ba1565b610508565b61022f61028e366004610c07565b6105c1565b6101b16102a1366004610c4c565b6001600160a01b031660009081526020819052604090205490565b61022f6102ca366004610ba1565b6105ce565b6101706102dd366004610c20565b610602565b61018d61062d565b6101b1600081565b6006546101b1565b610170610308366004610ba1565b61063c565b6101b17f9f2df0fed2c77648de5860a4cc508cd0818c85b8b8a1ab4ceeef8d981c8956a681565b61022f610342366004610c20565b61064a565b6101b1610355366004610c67565b6001600160a01b03918216600090815260016020908152604080832093909416825291909152205490565b60006001600160e01b03198216637965db0b60e01b14806103b157506301ffc9a760e01b6001600160e01b03198316145b92915050565b6060600380546103c690610c91565b80601f01602080910402602001604051908101604052809291908181526020018280546103f290610c91565b801561043f5780601f106104145761010080835404028352916020019161043f565b820191906000526020600020905b81548152906001019060200180831161042257829003601f168201915b5050505050905090565b60003361045781858561066f565b5060019392505050565b60003361046f85828561067c565b61047a8585856106f4565b506001949350505050565b6000828152600560205260409020600101546104a081610753565b6104aa838361075d565b50505050565b60006006546a52b7d2dcc80cd2e40000006104cb9190610ce1565b905090565b6001600160a01b03811633146104f95760405163334bd91960e11b815260040160405180910390fd5b61050382826107f1565b505050565b7f9f2df0fed2c77648de5860a4cc508cd0818c85b8b8a1ab4ceeef8d981c8956a661053281610753565b6a52b7d2dcc80cd2e40000008260065461054c9190610cf4565b111561059f5760405162461bcd60e51b815260206004820152601f60248201527f536b696c6c546f6b656e3a206d617820737570706c792065786365656465640060448201526064015b60405180910390fd5b81600660008282546105b19190610cf4565b909155506105039050838361085e565b6105cb3382610898565b50565b7f3c11d16cbaffd01df69ce1c404f6340ee057498f5f00246190ea54220576a8486105f881610753565b6105038383610898565b60009182526005602090815260408084206001600160a01b0393909316845291905290205460ff1690565b6060600480546103c690610c91565b6000336104578185856106f4565b60008281526005602052604090206001015461066581610753565b6104aa83836107f1565b61050383838360016108ce565b6001600160a01b0383811660009081526001602090815260408083209386168352929052205460001981146104aa57818110156106e557604051637dc7a0d960e11b81526001600160a01b03841660048201526024810182905260448101839052606401610596565b6104aa848484840360006108ce565b6001600160a01b03831661071e57604051634b637e8f60e11b815260006004820152602401610596565b6001600160a01b0382166107485760405163ec442f0560e01b815260006004820152602401610596565b6105038383836109a3565b6105cb8133610acd565b60006107698383610602565b6107e95760008381526005602090815260408083206001600160a01b03861684529091529020805460ff191660011790556107a13390565b6001600160a01b0316826001600160a01b0316847f2f8788117e7eff1d82e926ec794901d17c78024a50270940304540a733656f0d60405160405180910390a45060016103b1565b5060006103b1565b60006107fd8383610602565b156107e95760008381526005602090815260408083206001600160a01b0386168085529252808320805460ff1916905551339286917ff6391f5c32d9c69d2a47ea670b442974b53935d1edc7fd64eb21e047a839171b9190a45060016103b1565b6001600160a01b0382166108885760405163ec442f0560e01b815260006004820152602401610596565b610894600083836109a3565b5050565b6001600160a01b0382166108c257604051634b637e8f60e11b815260006004820152602401610596565b610894826000836109a3565b6001600160a01b0384166108f85760405163e602df0560e01b815260006004820152602401610596565b6001600160a01b03831661092257604051634a1406b160e11b815260006004820152602401610596565b6001600160a01b03808516600090815260016020908152604080832093871683529290522082905580156104aa57826001600160a01b0316846001600160a01b03167f8c5be1e5ebec7d5bd14f71427d1e84f3dd0314c0f7b2291e5b200ac8c7c3b9258460405161099591815260200190565b60405180910390a350505050565b6001600160a01b0383166109ce5780600260008282546109c39190610cf4565b90915550610a409050565b6001600160a01b03831660009081526020819052604090205481811015610a215760405163391434e360e21b81526001600160a01b03851660048201526024810182905260448101839052606401610596565b6001600160a01b03841660009081526020819052604090209082900390555b6001600160a01b038216610a5c57600280548290039055610a7b565b6001600160a01b03821660009081526020819052604090208054820190555b816001600160a01b0316836001600160a01b03167fddf252ad1be2c89b69c2b068fc378daa952ba7f163c4a11628f55a4df523b3ef83604051610ac091815260200190565b60405180910390a3505050565b610ad78282610602565b6108945760405163e2517d3f60e01b81526001600160a01b038216600482015260248101839052604401610596565b600060208284031215610b1857600080fd5b81356001600160e01b031981168114610b3057600080fd5b9392505050565b600060208083528351808285015260005b81811015610b6457858101830151858201604001528201610b48565b506000604082860101526040601f19601f8301168501019250505092915050565b80356001600160a01b0381168114610b9c57600080fd5b919050565b60008060408385031215610bb457600080fd5b610bbd83610b85565b946020939093013593505050565b600080600060608486031215610be057600080fd5b610be984610b85565b9250610bf760208501610b85565b9150604084013590509250925092565b600060208284031215610c1957600080fd5b5035919050565b60008060408385031215610c3357600080fd5b82359150610c4360208401610b85565b90509250929050565b600060208284031215610c5e57600080fd5b610b3082610b85565b60008060408385031215610c7a57600080fd5b610c8383610b85565b9150610c4360208401610b85565b600181811c90821680610ca557607f821691505b602082108103610cc557634e487b7160e01b600052602260045260246000fd5b50919050565b634e487b7160e01b600052601160045260246000fd5b818103818111156103b1576103b1610ccb565b808201808211156103b1576103b1610ccb56fea26469706673582212200bde473f0d0d28e84f481e91db495045484c937428b8de0b5ebe4dae89e4acb664736f6c63430008140033",
  "linkReferences": {},
  "deployedLinkReferences": {}
}