{
  "_format": "hh-sol-artifact-1",
  "contractName": "ReputationToken",
  "sourceName": "contracts/tokens/ReputationToken.sol",
  "abi": [
    {
      "inputs": [
        {
          "internalType": "address",
          "name": "admin",
          "type": "address"
        }
      ],
      "stateMutability": "nonpayable",
      "type": "constructor"
    },
    {
      "inputs": [],
      "name": "AccessControlBadConfirmation",
      "type": "error"
    },
    {
      "inputs": [
        {
          "internalType": "address",
          "name": "account",
          "type": "address"
        },
        {
          "internalType": "bytes32",
          "name": "neededRole",
          "type": "bytes32"
        }
      ],
      "name": "AccessControlUnauthorizedAccount",
      "type": "error"
    },
    {
      "inputs": [
        {
          "internalType": "address",
          "name": "sender",
          "type": "address"
        },
        {
          "internalType": "uint256",
          "name": "tokenId",
          "type": "uint256"
        },
        {
          "internalType": "address",
          "name": "owner",
          "type": "address"
        }
      ],
      "name": "ERC721IncorrectOwner",
      "type": "error"
    },
    {
      "inputs": [
        {
          "internalType": "address",
          "name": "operator",
          "type": "address"
        },
        {
          "internalType": "uint256",
          "name": "tokenId",
          "type": "uint256"
        }
      ],
      "name": "ERC721InsufficientApproval",
      "type": "error"
    },
    {
      "inputs": [
        {
          "internalType": "address",
          "name": "approver",
          "type": "address"
        }
      ],
      "name": "ERC721InvalidApprover",
      "type": "error"
    },
    {
      "inputs": [
        {
          "internalType": "address",
          "name": "operator",
          "type": "address"
        }
      ],
      "name": "ERC721InvalidOperator",
      "type": "error"
    },
    {
      "inputs": [
        {
          "internalType": "address",
          "name": "owner",
          "type": "address"
        }
      ],
      "name": "ERC721InvalidOwner",
      "type": "error"
    },
    {
      "inputs": [
        {
          "internalType": "address",
          "name": "receiver",
          "type": "address"
        }
      ],
      "name": "ERC721InvalidReceiver",
      "type": "error"
    },
    {
      "inputs": [
        {
          "internalType": "address",
          "name": "sender",
          "type": "address"
        }
      ],
      "name": "ERC721InvalidSender",
      "type": "error"
    },
    {
      "inputs": [
        {
          "internalType": "uint256",
          "name": "tokenId",
          "type": "uint256"
        }
      ],
      "name": "ERC721NonexistentToken",
      "type": "error"
    },
    {
      "anonymous": false,
      "inputs": [
        {
          "indexed": true,
          "internalType": "address",
          "name": "owner",
          "type": "address"
        },
        {
          "indexed": true,
          "internalType": "address",
          "name": "approved",
          "type": "address"
        },
        {
          "indexed": true,
          "internalType": "uint256",
          "name": "tokenId",
          "type": "uint256"
        }
      ],
      "name": "Approval",
      "type": "event"
    },
    {
      "anonymous": false,
      "inputs": [
        {
          "indexed": true,
          "internalType": "address",
          "name": "owner",
          "type": "address"
        },
        {
          "indexed": true,
          "internalType": "address",
          "name": "operator",
          "type": "address"
        },
        {
          "indexed": false,
          "internalType": "bool",
          "name": "approved",
          "type": "bool"
        }
      ],
      "name": "ApprovalForAll",
      "type": "event"
    },
    {
      "anonymous": false,
      "inputs": [
        {
          "indexed": true,
          "internalType": "bytes32",
          "name": "role",
          "type": "bytes32"
        },
        {
          "indexed": true,
          "internalType": "bytes32",
          "name": "previousAdminRole",
          "type": "bytes32"
        },
        {
          "indexed": true,
          "internalType": "bytes32",
          "name": "newAdminRole",
          "type": "bytes32"
        }
      ],
      "name": "RoleAdminChanged",
      "type": "event"
    },
    {
      "anonymous": false,
      "inputs": [
        {
          "indexed": true,
          "internalType": "bytes32",
          "name": "role",
          "type": "bytes32"
        },
        {
          "indexed": true,
          "internalType": "address",
          "name": "account",
          "type": "address"
        },
        {
          "indexed": true,
          "internalType": "address",
          "name": "sender",
          "type": "address"
        }
      ],
      "name": "RoleGranted",
      "type": "event"
    },
    {
      "anonymous": false,
      "inputs": [
        {
          "indexed": true,
          "internalType": "bytes32",
          "name": "role",
          "type": "bytes32"
        },
        {
          "indexed": true,
          "internalType": "address",
          "name": "account",
          "type": "address"
        },
        {
          "indexed": true,
          "internalType": "address",
          "name": "sender",
          "type": "address"
        }
      ],
      "name": "RoleRevoked",
      "type": "event"
    },
    {
      "anonymous": false,
      "inputs": [
        {
          "indexed": true,
          "internalType": "address",
          "name": "from",
          "type": "address"
        },
        {
          "indexed": true,
          "internalType": "address",
          "name": "to",
          "type": "address"
        },
        {
          "indexed": true,
          "internalType": "uint256",
          "name": "tokenId",
          "type": "uint256"
        }
      ],
      "name": "Transfer",
      "type": "event"
    },
    {
      "inputs": [],
      "name": "DEFAULT_ADMIN_ROLE",
      "outputs": [
        {
          "internalType": "bytes32",
          "name": "",
          "type": "bytes32"
        }
      ],
      "stateMutability": "view",
      "type": "function"
    },
    {
      "inputs": [],
      "name": "MINTER_ROLE",
      "outputs": [
        {
          "internalType": "bytes32",
          "name": "",
          "type": "bytes32"
        }
      ],
      "stateMutability": "view",
      "type": "function"
    },
    {
      "inputs": [
        {
          "internalType": "address",
          "name": "to",
          "type": "address"
        },
        {
          "internalType": "uint256",
          "name": "tokenId",
          "type": "uint256"
        }
      ],
      "name": "approve",
      "outputs": [],
      "stateMutability": "nonpayable",
      "type": "function"
    },
    {
      "inputs": [
        {
          "internalType": "address",
          "name": "owner",
          "type": "address"
        }
      ],
      "name": "balanceOf",
      "outputs": [
        {
          "internalType": "uint256",
          "name": "",
          "type": "uint256"
        }
      ],
      "stateMutability": "view",
      "type": "function"
    },
    {
      "inputs": [
        {
          "internalType": "uint256",
          "name": "tokenId",
          "type": "uint256"
        }
      ],
      "name": "burn",
      "outputs": [],
      "stateMutability": "nonpayable",
      "type": "function"
    },
    {
      "inputs": [
        {
          "internalType": "uint256",
          "name": "tokenId",
          "type": "uint256"
        }
      ],
      "name": "getApproved",
      "outputs": [
        {
          "internalType": "address",
          "name": "",
          "type": "address"
        }
      ],
      "stateMutability": "view",
      "type": "function"
    },
    {
      "inputs": [
        {
          "internalType": "bytes32",
          "name": "role",
          "type": "bytes32"
        }
      ],
      "name": "getRoleAdmin",
      "outputs": [
        {
          "internalType": "bytes32",
          "name": "",
          "type": "bytes32"
        }
      ],
      "stateMutability": "view",
      "type": "function"
    },
    {
      "inputs": [
        {
          "internalType": "uint256",
          "name": "tokenId",
          "type": "uint256"
        }
      ],
      "name": "getTokenScore",
      "outputs": [
        {
          "internalType": "uint256",
          "name": "",
          "type": "uint256"
        }
      ],
      "stateMutability": "view",
      "type": "function"
    },
    {
      "inputs": [
        {
          "internalType": "uint256",
          "name": "tokenId",
          "type": "uint256"
        }
      ],
      "name": "getTokenSkill",
      "outputs": [
        {
          "internalType": "uint256",
          "name": "",
          "type": "uint256"
        }
      ],
      "stateMutability": "view",
      "type": "function"
    },
    {
      "inputs": [
        {
          "internalType": "address",
          "name": "user",
          "type": "address"
        }
      ],
      "name": "getUserTokens",
      "outputs": [
        {
          "internalType": "uint256[]",
          "name": "",
          "type": "uint256[]"
        }
      ],
      "stateMutability": "view",
      "type": "function"
    },
    {
      "inputs": [
        {
          "internalType": "bytes32",
          "name": "role",
          "type": "bytes32"
        },
        {
          "internalType": "address",
          "name": "account",
          "type": "address"
        }
      ],
      "name": "grantRole",
      "outputs": [],
      "stateMutability": "nonpayable",
      "type": "function"
    },
    {
      "inputs": [
        {
          "internalType": "bytes32",
          "name": "role",
          "type": "bytes32"
        },
        {
          "internalType": "address",
          "name": "account",
          "type": "address"
        }
      ],
      "name": "hasRole",
      "outputs": [
        {
          "internalType": "bool",
          "name": "",
          "type": "bool"
        }
      ],
      "stateMutability": "view",
      "type": "function"
    },
    {
      "inputs": [
        {
          "internalType": "address",
          "name": "owner",
          "type": "address"
        },
        {
          "internalType": "address",
          "name": "operator",
          "type": "address"
        }
      ],
      "name": "isApprovedForAll",
      "outputs": [
        {
          "internalType": "bool",
          "name": "",
          "type": "bool"
        }
      ],
      "stateMutability": "view",
      "type": "function"
    },
    {
      "inputs": [
        {
          "internalType": "address",
          "name": "to",
          "type": "address"
        },
        {
          "internalType": "uint256",
          "name": "skillId",
          "type": "uint256"
        },
        {
          "internalType": "uint256",
          "name": "score",
          "type": "uint256"
        },
        {
          "internalType": "string",
          "name": "uri",
          "type": "string"
        }
      ],
      "name": "mint",
      "outputs": [
        {
          "internalType": "uint256",
          "name": "",
          "type": "uint256"
        }
      ],
      "stateMutability": "nonpayable",
      "type": "function"
    },
    {
      "inputs": [],
      "name": "name",
      "outputs": [
        {
          "internalType": "string",
          "name": "",
          "type": "string"
        }
      ],
      "stateMutability": "view",
      "type": "function"
    },
    {
      "inputs": [
        {
          "internalType": "uint256",
          "name": "tokenId",
          "type": "uint256"
        }
      ],
      "name": "ownerOf",
      "outputs": [
        {
          "internalType": "address",
          "name": "",
          "type": "address"
        }
      ],
      "stateMutability": "view",
      "type": "function"
    },
    {
      "inputs": [
        {
          "internalType": "bytes32",
          "name": "role",
          "type": "bytes32"
        },
        {
          "internalType": "address",
          "name": "callerConfirmation",
          "type": "address"
        }
      ],
      "name": "renounceRole",
      "outputs": [],
      "stateMutability": "nonpayable",
      "type": "function"
    },
    {
      "inputs": [
        {
          "internalType": "bytes32",
          "name": "role",
          "type": "bytes32"
        },
        {
          "internalType": "address",
          "name": "account",
          "type": "address"
        }
      ],
      "name": "revokeRole",
      "outputs": [],
      "stateMutability": "nonpayable",
      "type": "function"
    },
    {
      "inputs": [
        {
          "internalType": "address",
          "name": "from",
          "type": "address"
        },
        {
          "internalType": "address",
          "name": "to",
          "type": "address"
        },
        {
          "internalType": "uint256",
          "name": "tokenId",
          "type": "uint256"
        }
      ],
      "name": "safeTransferFrom",
      "outputs": [],
      "stateMutability": "nonpayable",
      "type": "function"
    },
    {
      "inputs": [
        {
          "internalType": "address",
          "name": "from",
          "type": "address"
        },
        {
          "internalType": "address",
          "name": "to",
          "type": "address"
        },
        {
          "internalType": "uint256",
          "name": "tokenId",
          "type": "uint256"
        },
        {
          "internalType": "bytes",
          "name": "data",
          "type": "bytes"
        }
      ],
      "name": "safeTransferFrom",
      "outputs": [],
      "stateMutability": "nonpayable",
      "type": "function"
    },
    {
      "inputs": [
        {
          "internalType": "address",
          "name": "operator",
          "type": "address"
        },
        {
          "internalType": "bool",
          "name": "approved",
          "type": "bool"
        }
      ],
      "name": "setApprovalForAll",
      "outputs": [],
      "stateMutability": "nonpayable",
      "type": "function"
    },
    {
      "inputs": [
        {
          "internalType": "bytes4",
          "name": "interfaceId",
          "type": "bytes4"
        }
      ],
      "name": "supportsInterface",
      "outputs": [
        {
          "internalType": "bool",
          "name": "",
          "type": "bool"
        }
      ],
      "stateMutability": "view",
      "type": "function"
    },
    {
      "inputs": [],
      "name": "symbol",
      "outputs": [
        {
          "internalType": "string",
          "name": "",
          "type": "string"
        }
      ],
      "stateMutability": "view",
      "type": "function"
    },
    {
      "inputs": [
        {
          "internalType": "uint256",
          "name": "tokenId",
          "type": "uint256"
        }
      ],
      "name": "tokenURI",
      "outputs": [
        {
          "internalType": "string",
          "name": "",
          "type": "string"
        }
      ],
      "stateMutability": "view",
      "type": "function"
    },
    {
      "inputs": [
        {
          "internalType": "address",
          "name": "from",
          "type": "address"
        },
        {
          "internalType": "address",
          "name": "to",
          "type": "address"
        },
        {
          "internalType": "uint256",
          "name": "tokenId",
          "type": "uint256"
        }
      ],
      "name": "transferFrom",
      "outputs": [],
      "stateMutability": "nonpayable",
      "type": "function"
    },
    {
      "inputs": [
        {
          "internalType": "uint256",
          "name": "tokenId",
          "type": "uint256"
        },
        {
          "internalType": "uint256",
          "name": "newScore",
          "type": "uint256"
        }
      ],
      "name": "updateScore",
      "outputs": [],
      "stateMutability": "nonpayable",
      "type": "function"
    }
  ],
  "bytecode": "0x60806040523480156200001157600080fd5b5060405162001f2638038062001f26833981016040819052620000349162000194565b6040518060400160405280601081526020016f29b5b4b636102932b83aba30ba34b7b760811b815250604051806040016040528060048152602001630535245560e41b81525081600090816200008b91906200026b565b5060016200009a82826200026b565b50620000ac91506000905082620000e1565b50620000d97f9f2df0fed2c77648de5860a4cc508cd0818c85b8b8a1ab4ceeef8d981c8956a682620000e1565b505062000337565b60008281526006602090815260408083206001600160a01b038516845290915281205460ff166200018a5760008381526006602090815260408083206001600160a01b03861684529091529020805460ff19166001179055620001413390565b6001600160a01b0316826001600160a01b0316847f2f8788117e7eff1d82e926ec794901d17c78024a50270940304540a733656f0d60405160405180910390a45060016200018e565b5060005b92915050565b600060208284031215620001a757600080fd5b81516001600160a01b0381168114620001bf57600080fd5b9392505050565b634e487b7160e01b600052604160045260246000fd5b600181811c90821680620001f157607f821691505b6020821081036200021257634e487b7160e01b600052602260045260246000fd5b50919050565b601f8211156200026657600081815260208120601f850160051c81016020861015620002415750805b601f850160051c820191505b8181101562000262578281556001016200024d565b5050505b505050565b81516001600160401b03811115620002875762000287620001c6565b6200029f81620002988454620001dc565b8462000218565b602080601f831160018114620002d75760008415620002be5750858301515b600019600386901b1c1916600185901b17855562000262565b600085815260208120601f198616915b828110156200030857888601518255948401946001909101908401620002e7565b5085821015620003275787850151600019600388901b60f8161c191681555b5050505050600190811b01905550565b611bdf80620003476000396000f3fe608060405234801561001057600080fd5b506004361061018e5760003560e01c80636352211e116100de578063a22cb46511610097578063c87b56dd11610071578063c87b56dd1461037b578063d53913931461038e578063d547741f146103b5578063e985e9c5146103c857600080fd5b8063a22cb46514610342578063b88d4fde14610355578063bb7fde711461036857600080fd5b80636352211e146102e657806370a08231146102f957806391d148541461030c57806395d89b411461031f5780639ac2047714610327578063a217fddf1461033a57600080fd5b8063248a9ca31161014b57806342842e0e1161012557806342842e0e1461028d57806342966c68146102a0578063490c68d7146102b3578063519dc8d2146102c657600080fd5b8063248a9ca3146102365780632f2ff15d1461026757806336568abe1461027a57600080fd5b806301ffc9a71461019357806306fdde03146101bb578063081812fc146101d057806309218e7b146101fb578063095ea7b31461021057806323b872dd14610223575b600080fd5b6101a66101a13660046115a1565b6103db565b60405190151581526020015b60405180910390f35b6101c3610406565b6040516101b2919061160e565b6101e36101de366004611621565b610498565b6040516001600160a01b0390911681526020016101b2565b61020e61020936600461163a565b6104c1565b005b61020e61021e366004611678565b610559565b61020e6102313660046116a2565b610568565b610259610244366004611621565b60009081526006602052604090206001015490565b6040519081526020016101b2565b61020e6102753660046116de565b6105f3565b61020e6102883660046116de565b610618565b61020e61029b3660046116a2565b610650565b61020e6102ae366004611621565b61066b565b6102596102c1366004611621565b61074f565b6102d96102d436600461170a565b610794565b6040516101b29190611725565b6101e36102f4366004611621565b610800565b61025961030736600461170a565b61080b565b6101a661031a3660046116de565b610853565b6101c361087e565b610259610335366004611621565b61088d565b610259600081565b61020e610350366004611769565b6108d2565b61020e610363366004611831565b6108dd565b6102596103763660046118ad565b6108f4565b6101c3610389366004611621565b6109c7565b6102597f9f2df0fed2c77648de5860a4cc508cd0818c85b8b8a1ab4ceeef8d981c8956a681565b61020e6103c33660046116de565b610aff565b6101a66103d63660046118f6565b610b24565b6000632483248360e11b6001600160e01b031983161480610400575061040082610b52565b92915050565b60606000805461041590611920565b80601f016020809104026020016040519081016040528092919081815260200182805461044190611920565b801561048e5780601f106104635761010080835404028352916020019161048e565b820191906000526020600020905b81548152906001019060200180831161047157829003601f168201915b5050505050905090565b60006104a382610b77565b506000828152600460205260409020546001600160a01b0316610400565b7f9f2df0fed2c77648de5860a4cc508cd0818c85b8b8a1ab4ceeef8d981c8956a66104eb81610baf565b60006104f684610bbc565b6001600160a01b0316036105255760405162461bcd60e51b815260040161051c9061195a565b60405180910390fd5b60648211156105465760405162461bcd60e51b815260040161051c9061199f565b5060009182526009602052604090912055565b610564828233610bd7565b5050565b6001600160a01b03821661059257604051633250574960e11b81526000600482015260240161051c565b600061059f838333610be4565b9050836001600160a01b0316816001600160a01b0316146105ed576040516364283d7b60e01b81526001600160a01b038086166004830152602482018490528216604482015260640161051c565b50505050565b60008281526006602052604090206001015461060e81610baf565b6105ed8383610c79565b6001600160a01b03811633146106415760405163334bd91960e11b815260040160405180910390fd5b61064b8282610d0d565b505050565b61064b838383604051806020016040528060008152506108dd565b600061067682610bbc565b90506001600160a01b03811661069e5760405162461bcd60e51b815260040161051c9061195a565b6106a9813384610d7a565b61070f5760405162461bcd60e51b815260206004820152603160248201527f52657075746174696f6e546f6b656e3a2063616c6c6572206973206e6f74206f6044820152701ddb995c881b9bdc88185c1c1c9bdd9959607a1b606482015260840161051c565b6000828152600b60205260409020805461072890611920565b159050610746576000828152600b602052604081206107469161153d565b61056482610ddd565b60008061075b83610bbc565b6001600160a01b0316036107815760405162461bcd60e51b815260040161051c9061195a565b5060009081526009602052604090205490565b6001600160a01b0381166000908152600a60209081526040918290208054835181840281018401909452808452606093928301828280156107f457602002820191906000526020600020905b8154815260200190600101908083116107e0575b50505050509050919050565b600061040082610b77565b60006001600160a01b038216610837576040516322718ad960e21b81526000600482015260240161051c565b506001600160a01b031660009081526003602052604090205490565b60009182526006602090815260408084206001600160a01b0393909316845291905290205460ff1690565b60606001805461041590611920565b60008061089983610bbc565b6001600160a01b0316036108bf5760405162461bcd60e51b815260040161051c9061195a565b5060009081526008602052604090205490565b610564338383610e18565b6108e8848484610568565b6105ed84848484610eb7565b60007f9f2df0fed2c77648de5860a4cc508cd0818c85b8b8a1ab4ceeef8d981c8956a661092081610baf565b60648411156109415760405162461bcd60e51b815260040161051c9061199f565b600780549081906000610953836119eb565b91905055506109628782610fe0565b6000818152600b6020526040902061097a8582611a60565b506000818152600860209081526040808320899055600982528083208890556001600160a01b038a168352600a825282208054600181018255908352912001819055915050949350505050565b606060006109d483610bbc565b6001600160a01b0316036109fa5760405162461bcd60e51b815260040161051c9061195a565b6000828152600b602052604081208054610a1390611920565b80601f0160208091040260200160405190810160405280929190818152602001828054610a3f90611920565b8015610a8c5780601f10610a6157610100808354040283529160200191610a8c565b820191906000526020600020905b815481529060010190602001808311610a6f57829003601f168201915b505050505090506000610aaa60408051602081019091526000815290565b90508051600003610abc575092915050565b815115610aee578082604051602001610ad6929190611b20565b60405160208183030381529060405292505050919050565b610af784610ffa565b949350505050565b600082815260066020526040902060010154610b1a81610baf565b6105ed8383610d0d565b6001600160a01b03918216600090815260056020908152604080832093909416825291909152205460ff1690565b60006001600160e01b03198216637965db0b60e01b148061040057506104008261106f565b600080610b8383610bbc565b90506001600160a01b03811661040057604051637e27328960e01b81526004810184905260240161051c565b610bb981336110bf565b50565b6000908152600260205260409020546001600160a01b031690565b61064b83838360016110f8565b600080610bf084610bbc565b90506001600160a01b0381161580610c0f57506001600160a01b038516155b610c655760405162461bcd60e51b815260206004820152602160248201527f52657075746174696f6e546f6b656e3a206e6f6e2d7472616e7366657261626c6044820152606560f81b606482015260840161051c565b610c708585856111fe565b95945050505050565b6000610c858383610853565b610d055760008381526006602090815260408083206001600160a01b03861684529091529020805460ff19166001179055610cbd3390565b6001600160a01b0316826001600160a01b0316847f2f8788117e7eff1d82e926ec794901d17c78024a50270940304540a733656f0d60405160405180910390a4506001610400565b506000610400565b6000610d198383610853565b15610d055760008381526006602090815260408083206001600160a01b0386168085529252808320805460ff1916905551339286917ff6391f5c32d9c69d2a47ea670b442974b53935d1edc7fd64eb21e047a839171b9190a4506001610400565b60006001600160a01b03831615801590610af75750826001600160a01b0316846001600160a01b03161480610db45750610db48484610b24565b80610af75750506000908152600460205260409020546001600160a01b03908116911614919050565b6000610dec6000836000610be4565b90506001600160a01b03811661056457604051637e27328960e01b81526004810183905260240161051c565b6001600160a01b038216610e4a57604051630b61174360e31b81526001600160a01b038316600482015260240161051c565b6001600160a01b03838116600081815260056020908152604080832094871680845294825291829020805460ff191686151590811790915591519182527f17307eab39ab6107e8899845ad3d59bd9653f200f220920489ca2b5937696c31910160405180910390a3505050565b6001600160a01b0383163b156105ed57604051630a85bd0160e11b81526001600160a01b0384169063150b7a0290610ef9903390889087908790600401611b4f565b6020604051808303816000875af1925050508015610f34575060408051601f3d908101601f19168201909252610f3191810190611b8c565b60015b610f9d573d808015610f62576040519150601f19603f3d011682016040523d82523d6000602084013e610f67565b606091505b508051600003610f9557604051633250574960e11b81526001600160a01b038516600482015260240161051c565b805181602001fd5b6001600160e01b03198116630a85bd0160e11b14610fd957604051633250574960e11b81526001600160a01b038516600482015260240161051c565b5050505050565b6105648282604051806020016040528060008152506112f2565b606061100582610b77565b50600061101d60408051602081019091526000815290565b9050600081511161103d5760405180602001604052806000815250611068565b8061104784611309565b604051602001611058929190611b20565b6040516020818303038152906040525b9392505050565b60006001600160e01b031982166380ac58cd60e01b14806110a057506001600160e01b03198216635b5e139f60e01b145b8061040057506301ffc9a760e01b6001600160e01b0319831614610400565b6110c98282610853565b6105645760405163e2517d3f60e01b81526001600160a01b03821660048201526024810183905260440161051c565b808061110c57506001600160a01b03821615155b156111ce57600061111c84610b77565b90506001600160a01b038316158015906111485750826001600160a01b0316816001600160a01b031614155b801561115b57506111598184610b24565b155b156111845760405163a9fbf51f60e01b81526001600160a01b038416600482015260240161051c565b81156111cc5783856001600160a01b0316826001600160a01b03167f8c5be1e5ebec7d5bd14f71427d1e84f3dd0314c0f7b2291e5b200ac8c7c3b92560405160405180910390a45b505b5050600090815260046020526040902080546001600160a01b0319166001600160a01b0392909216919091179055565b60008061120a84610bbc565b90506001600160a01b038316156112265761122681848661139c565b6001600160a01b03811615611264576112436000856000806110f8565b6001600160a01b038116600090815260036020526040902080546000190190555b6001600160a01b03851615611293576001600160a01b0385166000908152600360205260409020805460010190555b60008481526002602052604080822080546001600160a01b0319166001600160a01b0389811691821790925591518793918516917fddf252ad1be2c89b69c2b068fc378daa952ba7f163c4a11628f55a4df523b3ef91a4949350505050565b6112fc8383611400565b61064b6000848484610eb7565b6060600061131683611465565b600101905060008167ffffffffffffffff811115611336576113366117a5565b6040519080825280601f01601f191660200182016040528015611360576020820181803683370190505b5090508181016020015b600019016f181899199a1a9b1b9c1cb0b131b232b360811b600a86061a8153600a850494508461136a57509392505050565b6113a7838383610d7a565b61064b576001600160a01b0383166113d557604051637e27328960e01b81526004810182905260240161051c565b60405163177e802f60e01b81526001600160a01b03831660048201526024810182905260440161051c565b6001600160a01b03821661142a57604051633250574960e11b81526000600482015260240161051c565b600061143883836000610be4565b90506001600160a01b0381161561064b576040516339e3563760e11b81526000600482015260240161051c565b60008072184f03e93ff9f4daa797ed6e38ed64bf6a1f0160401b83106114a45772184f03e93ff9f4daa797ed6e38ed64bf6a1f0160401b830492506040015b6d04ee2d6d415b85acef810000000083106114d0576d04ee2d6d415b85acef8100000000830492506020015b662386f26fc1000083106114ee57662386f26fc10000830492506010015b6305f5e1008310611506576305f5e100830492506008015b612710831061151a57612710830492506004015b6064831061152c576064830492506002015b600a83106104005760010192915050565b50805461154990611920565b6000825580601f10611559575050565b601f016020900490600052602060002090810190610bb991905b808211156115875760008155600101611573565b5090565b6001600160e01b031981168114610bb957600080fd5b6000602082840312156115b357600080fd5b81356110688161158b565b60005b838110156115d95781810151838201526020016115c1565b50506000910152565b600081518084526115fa8160208601602086016115be565b601f01601f19169290920160200192915050565b60208152600061106860208301846115e2565b60006020828403121561163357600080fd5b5035919050565b6000806040838503121561164d57600080fd5b50508035926020909101359150565b80356001600160a01b038116811461167357600080fd5b919050565b6000806040838503121561168b57600080fd5b6116948361165c565b946020939093013593505050565b6000806000606084860312156116b757600080fd5b6116c08461165c565b92506116ce6020850161165c565b9150604084013590509250925092565b600080604083850312156116f157600080fd5b823591506117016020840161165c565b90509250929050565b60006020828403121561171c57600080fd5b6110688261165c565b6020808252825182820181905260009190848201906040850190845b8181101561175d57835183529284019291840191600101611741565b50909695505050505050565b6000806040838503121561177c57600080fd5b6117858361165c565b91506020830135801515811461179a57600080fd5b809150509250929050565b634e487b7160e01b600052604160045260246000fd5b600067ffffffffffffffff808411156117d6576117d66117a5565b604051601f8501601f19908116603f011681019082821181831017156117fe576117fe6117a5565b8160405280935085815286868601111561181757600080fd5b858560208301376000602087830101525050509392505050565b6000806000806080858703121561184757600080fd5b6118508561165c565b935061185e6020860161165c565b925060408501359150606085013567ffffffffffffffff81111561188157600080fd5b8501601f8101871361189257600080fd5b6118a1878235602084016117bb565b91505092959194509250565b600080600080608085870312156118c357600080fd5b6118cc8561165c565b93506020850135925060408501359150606085013567ffffffffffffffff81111561188157600080fd5b6000806040838503121561190957600080fd5b6119128361165c565b91506117016020840161165c565b600181811c9082168061193457607f821691505b60208210810361195457634e487b7160e01b600052602260045260246000fd5b50919050565b60208082526025908201527f52657075746174696f6e546f6b656e3a20746f6b656e20646f6573206e6f7420604082015264195e1a5cdd60da1b606082015260800190565b6020808252602c908201527f52657075746174696f6e546f6b656e3a2073636f7265206d757374206265206260408201526b065747765656e20302d3130360a41b606082015260800190565b600060018201611a0b57634e487b7160e01b600052601160045260246000fd5b5060010190565b601f82111561064b57600081815260208120601f850160051c81016020861015611a395750805b601f850160051c820191505b81811015611a5857828155600101611a45565b505050505050565b815167ffffffffffffffff811115611a7a57611a7a6117a5565b611a8e81611a888454611920565b84611a12565b602080601f831160018114611ac35760008415611aab5750858301515b600019600386901b1c1916600185901b178555611a58565b600085815260208120601f198616915b82811015611af257888601518255948401946001909101908401611ad3565b5085821015611b105787850151600019600388901b60f8161c191681555b5050505050600190811b01905550565b60008351611b328184602088016115be565b835190830190611b468183602088016115be565b01949350505050565b6001600160a01b0385811682528416602082015260408101839052608060608201819052600090611b82908301846115e2565b9695505050505050565b600060208284031215611b9e57600080fd5b81516110688161158b56fea26469706673582212200e1cec7bdfd5f01d02bc65495b2d9b2042df960b046624831c39acc22e9933e364736f6c63430008140033",
  "linkReferences": {},
  "deployedLinkReferences": {}
}