{
  "_format": "hh-sol-artifact-1",
  "contractName": "UserRegistry",
  "sourceName": "contracts/core/UserRegistry.sol",
  "abi": [
    {
      "inputs": [
        {
          "internalType": "address",
          "name": "admin",
          "type": "address"
        }
      ],
      "stateMutability": "nonpayable",
      "type": "constructor"
    },
    {
      "inputs": [],
      "name": "AccessControlBadConfirmation",
      "type": "error"
    },
    {
      "inputs": [
        {
          "internalType": "address",
          "name": "account",
          "type": "address"
        },
        {
          "internalType": "bytes32",
          "name": "neededRole",
          "type": "bytes32"
        }
      ],
      "name": "AccessControlUnauthorizedAccount",
      "type": "error"
    },
    {
      "anonymous": false,
      "inputs": [
        {
          "indexed": true,
          "internalType": "address",
          "name": "userAddress",
          "type": "address"
        },
        {
          "indexed": false,
          "internalType": "uint256",
          "name": "oldReputation",
          "type": "uint256"
        },
        {
          "indexed": false,
          "internalType": "uint256",
          "name": "newReputation",
          "type": "uint256"
        },
        {
          "indexed": false,
          "internalType": "uint256",
          "name": "timestamp",
          "type": "uint256"
        }
      ],
      "name": "ReputationUpdated",
      "type": "event"
    },
    {
      "anonymous": false,
      "inputs": [
        {
          "indexed": true,
          "internalType": "bytes32",
          "name": "role",
          "type": "bytes32"
        },
        {
          "indexed": true,
          "internalType": "bytes32",
          "name": "previousAdminRole",
          "type": "bytes32"
        },
        {
          "indexed": true,
          "internalType": "bytes32",
          "name": "newAdminRole",
          "type": "bytes32"
        }
      ],
      "name": "RoleAdminChanged",
      "type": "event"
    },
    {
      "anonymous": false,
      "inputs": [
        {
          "indexed": true,
          "internalType": "bytes32",
          "name": "role",
          "type": "bytes32"
        },
        {
          "indexed": true,
          "internalType": "address",
          "name": "account",
          "type": "address"
        },
        {
          "indexed": true,
          "internalType": "address",
          "name": "sender",
          "type": "address"
        }
      ],
      "name": "RoleGranted",
      "type": "event"
    },
    {
      "anonymous": false,
      "inputs": [
        {
          "indexed": true,
          "internalType": "bytes32",
          "name": "role",
          "type": "bytes32"
        },
        {
          "indexed": true,
          "internalType": "address",
          "name": "account",
          "type": "address"
        },
        {
          "indexed": true,
          "internalType": "address",
          "name": "sender",
          "type": "address"
        }
      ],
      "name": "RoleRevoked",
      "type": "event"
    },
    {
      "anonymous": false,
      "inputs": [
        {
          "indexed": true,
          "internalType": "address",
          "name": "userAddress",
          "type": "address"
        },
        {
          "indexed": false,
          "internalType": "enum IUserRegistry.UserRole",
          "name": "role",
          "type": "uint8"
        },
        {
          "indexed": false,
          "internalType": "uint256",
          "name": "timestamp",
          "type": "uint256"
        }
      ],
      "name": "UserRegistered",
      "type": "event"
    },
    {
      "anonymous": false,
      "inputs": [
        {
          "indexed": true,
          "internalType": "address",
          "name": "userAddress",
          "type": "address"
        },
        {
          "indexed": false,
          "internalType": "enum IUserRegistry.VerificationStatus",
          "name": "status",
          "type": "uint8"
        },
        {
          "indexed": false,
          "internalType": "uint256",
          "name": "timestamp",
          "type": "uint256"
        }
      ],
      "name": "VerificationStatusUpdated",
      "type": "event"
    },
    {
      "inputs": [],
      "name": "ADMIN_ROLE",
      "outputs": [
        {
          "internalType": "bytes32",
          "name": "",
          "type": "bytes32"
        }
      ],
      "stateMutability": "view",
      "type": "function"
    },
    {
      "inputs": [],
      "name": "DEFAULT_ADMIN_ROLE",
      "outputs": [
        {
          "internalType": "bytes32",
          "name": "",
          "type": "bytes32"
        }
      ],
      "stateMutability": "view",
      "type": "function"
    },
    {
      "inputs": [],
      "name": "PLATFORM_ROLE",
      "outputs": [
        {
          "internalType": "bytes32",
          "name": "",
          "type": "bytes32"
        }
      ],
      "stateMutability": "view",
      "type": "function"
    },
    {
      "inputs": [],
      "name": "VERIFIER_ROLE",
      "outputs": [
        {
          "internalType": "bytes32",
          "name": "",
          "type": "bytes32"
        }
      ],
      "stateMutability": "view",
      "type": "function"
    },
    {
      "inputs": [],
      "name": "getAllUsers",
      "outputs": [
        {
          "internalType": "address[]",
          "name": "",
          "type": "address[]"
        }
      ],
      "stateMutability": "view",
      "type": "function"
    },
    {
      "inputs": [
        {
          "internalType": "bytes32",
          "name": "role",
          "type": "bytes32"
        }
      ],
      "name": "getRoleAdmin",
      "outputs": [
        {
          "internalType": "bytes32",
          "name": "",
          "type": "bytes32"
        }
      ],
      "stateMutability": "view",
      "type": "function"
    },
    {
      "inputs": [],
      "name": "getTotalUsers",
      "outputs": [
        {
          "internalType": "uint256",
          "name": "",
          "type": "uint256"
        }
      ],
      "stateMutability": "view",
      "type": "function"
    },
    {
      "inputs": [
        {
          "internalType": "address",
          "name": "_userAddress",
          "type": "address"
        }
      ],
      "name": "getUserProfile",
      "outputs": [
        {
          "components": [
            {
              "internalType": "address",
              "name": "userAddress",
              "type": "address"
            },
            {
              "internalType": "enum IUserRegistry.UserRole",
              "name": "role",
              "type": "uint8"
            },
            {
              "internalType": "enum IUserRegistry.VerificationStatus",
              "name": "verificationStatus",
              "type": "uint8"
            },
            {
              "internalType": "string",
              "name": "metadata",
              "type": "string"
            },
            {
              "internalType": "uint256",
              "name": "reputation",
              "type": "uint256"
            },
            {
              "internalType": "uint256",
              "name": "createdAt",
              "type": "uint256"
            },
            {
              "internalType": "uint256",
              "name": "updatedAt",
              "type": "uint256"
            }
          ],
          "internalType": "struct IUserRegistry.UserProfile",
          "name": "",
          "type": "tuple"
        }
      ],
      "stateMutability": "view",
      "type": "function"
    },
    {
      "inputs": [
        {
          "internalType": "enum IUserRegistry.UserRole",
          "name": "_role",
          "type": "uint8"
        }
      ],
      "name": "getUsersByRole",
      "outputs": [
        {
          "internalType": "address[]",
          "name": "",
          "type": "address[]"
        }
      ],
      "stateMutability": "view",
      "type": "function"
    },
    {
      "inputs": [
        {
          "internalType": "bytes32",
          "name": "role",
          "type": "bytes32"
        },
        {
          "internalType": "address",
          "name": "account",
          "type": "address"
        }
      ],
      "name": "grantRole",
      "outputs": [],
      "stateMutability": "nonpayable",
      "type": "function"
    },
    {
      "inputs": [
        {
          "internalType": "bytes32",
          "name": "role",
          "type": "bytes32"
        },
        {
          "internalType": "address",
          "name": "account",
          "type": "address"
        }
      ],
      "name": "hasRole",
      "outputs": [
        {
          "internalType": "bool",
          "name": "",
          "type": "bool"
        }
      ],
      "stateMutability": "view",
      "type": "function"
    },
    {
      "inputs": [
        {
          "internalType": "address",
          "name": "_userAddress",
          "type": "address"
        }
      ],
      "name": "isUserRegistered",
      "outputs": [
        {
          "internalType": "bool",
          "name": "",
          "type": "bool"
        }
      ],
      "stateMutability": "view",
      "type": "function"
    },
    {
      "inputs": [
        {
          "internalType": "address",
          "name": "_userAddress",
          "type": "address"
        }
      ],
      "name": "isUserVerified",
      "outputs": [
        {
          "internalType": "bool",
          "name": "",
          "type": "bool"
        }
      ],
      "stateMutability": "view",
      "type": "function"
    },
    {
      "inputs": [
        {
          "internalType": "enum IUserRegistry.UserRole",
          "name": "_role",
          "type": "uint8"
        },
        {
          "internalType": "string",
          "name": "_metadata",
          "type": "string"
        }
      ],
      "name": "registerUser",
      "outputs": [],
      "stateMutability": "nonpayable",
      "type": "function"
    },
    {
      "inputs": [
        {
          "internalType": "bytes32",
          "name": "role",
          "type": "bytes32"
        },
        {
          "internalType": "address",
          "name": "callerConfirmation",
          "type": "address"
        }
      ],
      "name": "renounceRole",
      "outputs": [],
      "stateMutability": "nonpayable",
      "type": "function"
    },
    {
      "inputs": [
        {
          "internalType": "bytes32",
          "name": "role",
          "type": "bytes32"
        },
        {
          "internalType": "address",
          "name": "account",
          "type": "address"
        }
      ],
      "name": "revokeRole",
      "outputs": [],
      "stateMutability": "nonpayable",
      "type": "function"
    },
    {
      "inputs": [
        {
          "internalType": "bytes4",
          "name": "interfaceId",
          "type": "bytes4"
        }
      ],
      "name": "supportsInterface",
      "outputs": [
        {
          "internalType": "bool",
          "name": "",
          "type": "bool"
        }
      ],
      "stateMutability": "view",
      "type": "function"
    },
    {
      "inputs": [
        {
          "internalType": "string",
          "name": "_metadata",
          "type": "string"
        }
      ],
      "name": "updateProfile",
      "outputs": [],
      "stateMutability": "nonpayable",
      "type": "function"
    },
    {
      "inputs": [
        {
          "internalType": "address",
          "name": "_userAddress",
          "type": "address"
        },
        {
          "internalType": "uint256",
          "name": "_reputation",
          "type": "uint256"
        }
      ],
      "name": "updateReputation",
      "outputs": [],
      "stateMutability": "nonpayable",
      "type": "function"
    },
    {
      "inputs": [
        {
          "internalType": "address",
          "name": "_userAddress",
          "type": "address"
        },
        {
          "internalType": "enum IUserRegistry.VerificationStatus",
          "name": "_status",
          "type": "uint8"
        }
      ],
      "name": "updateVerificationStatus",
      "outputs": [],
      "stateMutability": "nonpayable",
      "type": "function"
    }
  ],
  "bytecode": "0x60806040523480156200001157600080fd5b506040516200149638038062001496833981016040819052620000349162000152565b62000041600082620000a3565b506200006e7fa49807205ce4d355092ef5a8a18f56e8913cf4a201fbe287825b095693c2177582620000a3565b506200009b7f0ce23c3e399818cfee81a7ab0880f714e53d7672b08df0fa62f2843416e1ea0982620000a3565b505062000184565b6000828152602081815260408083206001600160a01b038516845290915281205460ff1662000148576000838152602081815260408083206001600160a01b03861684529091529020805460ff19166001179055620000ff3390565b6001600160a01b0316826001600160a01b0316847f2f8788117e7eff1d82e926ec794901d17c78024a50270940304540a733656f0d60405160405180910390a45060016200014c565b5060005b92915050565b6000602082840312156200016557600080fd5b81516001600160a01b03811681146200017d57600080fd5b9392505050565b61130280620001946000396000f3fe608060405234801561001057600080fd5b506004361061012b5760003560e01c80639be572f6116100ad578063d7f3aad711610071578063d7f3aad7146102a1578063ddb7a4de146102b4578063e2842d79146102d4578063e7705db6146102dc578063f5c91a081461030357600080fd5b80639be572f614610258578063a217fddf14610260578063ace417e014610268578063d29bcc5c1461027b578063d547741f1461028e57600080fd5b806336568abe116100f457806336568abe146101c457806370824c5c146101d757806375b238fc146101fe57806391d1485414610225578063987ee1561461023857600080fd5b80629299e31461013057806301ffc9a714610145578063163f75221461016d578063248a9ca3146101805780632f2ff15d146101b1575b600080fd5b61014361013e366004610d36565b610316565b005b610158610153366004610d78565b610370565b60405190151581526020015b60405180910390f35b61015861017b366004610dc5565b6103a7565b6101a361018e366004610de0565b60009081526020819052604090206001015490565b604051908152602001610164565b6101436101bf366004610df9565b6103c7565b6101436101d2366004610df9565b6103f2565b6101a37f797343f8d6a29aafeb3aaf0910a8973e0081c60c2f6c1f775cd9f76ea348fc1e81565b6101a37fa49807205ce4d355092ef5a8a18f56e8913cf4a201fbe287825b095693c2177581565b610158610233366004610df9565b61042a565b61024b610246366004610dc5565b610453565b6040516101649190610e5f565b6003546101a3565b6101a3600081565b610158610276366004610dc5565b610609565b610143610289366004610f23565b61066d565b61014361029c366004610df9565b6108f2565b6101436102af366004610f76565b610917565b6102c76102c2366004610fb1565b6109ea565b6040516101649190610fcc565b6102c7610a81565b6101a37f0ce23c3e399818cfee81a7ab0880f714e53d7672b08df0fa62f2843416e1ea0981565b610143610311366004611019565b610ae3565b61031f336103a7565b6103445760405162461bcd60e51b815260040161033b90611043565b60405180910390fd5b336000908152600160208190526040909120908101610364838583611122565b50426004909101555050565b60006001600160e01b03198216637965db0b60e01b14806103a157506301ffc9a760e01b6001600160e01b03198316145b92915050565b6001600160a01b0390811660009081526001602052604090205416151590565b6000828152602081905260409020600101546103e281610ba6565b6103ec8383610bb3565b50505050565b6001600160a01b038116331461041b5760405163334bd91960e11b815260040160405180910390fd5b6104258282610c45565b505050565b6000918252602082815260408084206001600160a01b0393909316845291905290205460ff1690565b6104946040805160e0810190915260008082526020820190815260200160008152602001606081526020016000815260200160008152602001600081525090565b61049d826103a7565b6104b95760405162461bcd60e51b815260040161033b90611043565b6001600160a01b03828116600090815260016020908152604091829020825160e0810190935280549384168352919290830190600160a01b900460ff16600281111561050757610507610e25565b600281111561051857610518610e25565b81528154602090910190600160a81b900460ff16600381111561053d5761053d610e25565b600381111561054e5761054e610e25565b81526020016001820180546105629061109a565b80601f016020809104026020016040519081016040528092919081815260200182805461058e9061109a565b80156105db5780601f106105b0576101008083540402835291602001916105db565b820191906000526020600020905b8154815290600101906020018083116105be57829003601f168201915b5050505050815260200160028201548152602001600382015481526020016004820154815250509050919050565b6000610614826103a7565b6106305760405162461bcd60e51b815260040161033b90611043565b60026001600160a01b038316600090815260016020526040902054600160a81b900460ff16600381111561066657610666610e25565b1492915050565b610676336103a7565b156106d15760405162461bcd60e51b815260206004820152602560248201527f5573657252656769737472793a207573657220616c72656164792072656769736044820152641d195c995960da1b606482015260840161033b565b60006040518060e00160405280336001600160a01b031681526020018560028111156106ff576106ff610e25565b81526020016000815260200184848080601f0160208091040260200160405190810160405280939291908181526020018383808284376000920182905250938552505050602080830182905242604080850182905260609094015233825260018152919020825181546001600160a01b03919091166001600160a01b0319821681178355928401519394508493919283916001600160a81b03191617600160a01b8360028111156107b2576107b2610e25565b021790555060408201518154829060ff60a81b1916600160a81b8360038111156107de576107de610e25565b0217905550606082015160018201906107f790826111e3565b506080820151816002015560a0820151816003015560c082015181600401559050506002600085600281111561082f5761082f610e25565b600281111561084057610840610e25565b8152602080820192909252604090810160009081208054600180820183559183529382209093018054336001600160a01b031991821681179092556003805495860181559092527fc2575a0e9e593c00f959f8c92f12db2869c3395a3b0502d05e2516446f71f85b909301805490911683179055517feea238307e4577ec1b8645d63505c2d57767cfc074bb5ab579a615525f07a257906108e490879042906112a3565b60405180910390a250505050565b60008281526020819052604090206001015461090d81610ba6565b6103ec8383610c45565b7f0ce23c3e399818cfee81a7ab0880f714e53d7672b08df0fa62f2843416e1ea0961094181610ba6565b61094a836103a7565b6109665760405162461bcd60e51b815260040161033b90611043565b6001600160a01b038316600090815260016020526040902080548390829060ff60a81b1916600160a81b8360038111156109a2576109a2610e25565b021790555042600482018190556040516001600160a01b038616917ff934e8cf974534d060d318c2895f4525a30308293bad53c86789d477ae351bc8916108e49187916112be565b606060026000836002811115610a0257610a02610e25565b6002811115610a1357610a13610e25565b8152602001908152602001600020805480602002602001604051908101604052809291908181526020018280548015610a7557602002820191906000526020600020905b81546001600160a01b03168152600190910190602001808311610a57575b50505050509050919050565b60606003805480602002602001604051908101604052809291908181526020018280548015610ad957602002820191906000526020600020905b81546001600160a01b03168152600190910190602001808311610abb575b5050505050905090565b7f797343f8d6a29aafeb3aaf0910a8973e0081c60c2f6c1f775cd9f76ea348fc1e610b0d81610ba6565b610b16836103a7565b610b325760405162461bcd60e51b815260040161033b90611043565b6001600160a01b03831660008181526001602090815260409182902060028101805490879055426004830181905584518281529384018890528385015292519093917fc2fd17ad7e9f23b8607f0bd02d7a6cdcccd5a964fa99ce5a066ed34c5b4bb55b919081900360600190a25050505050565b610bb08133610cb0565b50565b6000610bbf838361042a565b610c3d576000838152602081815260408083206001600160a01b03861684529091529020805460ff19166001179055610bf53390565b6001600160a01b0316826001600160a01b0316847f2f8788117e7eff1d82e926ec794901d17c78024a50270940304540a733656f0d60405160405180910390a45060016103a1565b5060006103a1565b6000610c51838361042a565b15610c3d576000838152602081815260408083206001600160a01b0386168085529252808320805460ff1916905551339286917ff6391f5c32d9c69d2a47ea670b442974b53935d1edc7fd64eb21e047a839171b9190a45060016103a1565b610cba828261042a565b610ce95760405163e2517d3f60e01b81526001600160a01b03821660048201526024810183905260440161033b565b5050565b60008083601f840112610cff57600080fd5b50813567ffffffffffffffff811115610d1757600080fd5b602083019150836020828501011115610d2f57600080fd5b9250929050565b60008060208385031215610d4957600080fd5b823567ffffffffffffffff811115610d6057600080fd5b610d6c85828601610ced565b90969095509350505050565b600060208284031215610d8a57600080fd5b81356001600160e01b031981168114610da257600080fd5b9392505050565b80356001600160a01b0381168114610dc057600080fd5b919050565b600060208284031215610dd757600080fd5b610da282610da9565b600060208284031215610df257600080fd5b5035919050565b60008060408385031215610e0c57600080fd5b82359150610e1c60208401610da9565b90509250929050565b634e487b7160e01b600052602160045260246000fd5b60038110610e4b57610e4b610e25565b9052565b60048110610e4b57610e4b610e25565b602080825282516001600160a01b0316828201528281015160009190610e886040850182610e3b565b506040840151610e9b6060850182610e4f565b50606084015160e0608085015280518061010086015260005b81811015610ed15782810184015186820161012001528301610eb4565b5061012092506000838287010152608086015160a086015260a086015160c086015260c086015160e086015282601f19601f830116860101935050505092915050565b803560038110610dc057600080fd5b600080600060408486031215610f3857600080fd5b610f4184610f14565b9250602084013567ffffffffffffffff811115610f5d57600080fd5b610f6986828701610ced565b9497909650939450505050565b60008060408385031215610f8957600080fd5b610f9283610da9565b9150602083013560048110610fa657600080fd5b809150509250929050565b600060208284031215610fc357600080fd5b610da282610f14565b6020808252825182820181905260009190848201906040850190845b8181101561100d5783516001600160a01b031683529284019291840191600101610fe8565b50909695505050505050565b6000806040838503121561102c57600080fd5b61103583610da9565b946020939093013593505050565b60208082526021908201527f5573657252656769737472793a2075736572206e6f74207265676973746572656040820152601960fa1b606082015260800190565b634e487b7160e01b600052604160045260246000fd5b600181811c908216806110ae57607f821691505b6020821081036110ce57634e487b7160e01b600052602260045260246000fd5b50919050565b601f82111561042557600081815260208120601f850160051c810160208610156110fb5750805b601f850160051c820191505b8181101561111a57828155600101611107565b505050505050565b67ffffffffffffffff83111561113a5761113a611084565b61114e83611148835461109a565b836110d4565b6000601f841160018114611182576000851561116a5750838201355b600019600387901b1c1916600186901b1783556111dc565b600083815260209020601f19861690835b828110156111b35786850135825560209485019460019092019101611193565b50868210156111d05760001960f88860031b161c19848701351681555b505060018560011b0183555b5050505050565b815167ffffffffffffffff8111156111fd576111fd611084565b6112118161120b845461109a565b846110d4565b602080601f831160018114611246576000841561122e5750858301515b600019600386901b1c1916600185901b17855561111a565b600085815260208120601f198616915b8281101561127557888601518255948401946001909101908401611256565b50858210156112935787850151600019600388901b60f8161c191681555b5050505050600190811b01905550565b604081016112b18285610e3b565b8260208301529392505050565b604081016112b18285610e4f56fea2646970667358221220c5d2634d70472fc8606ecdd85e71ffec357136e2f159b7b74968ee49460f05da64736f6c63430008140033",
  "linkReferences": {},
  "deployedLinkReferences": {}
}