{
  "_format": "hh-sol-artifact-1",
  "contractName": "SkillPlatform",
  "sourceName": "contracts/core/SkillPlatform.sol",
  "abi": [
    {
      "inputs": [
        {
          "internalType": "address",
          "name": "admin",
          "type": "address"
        },
        {
          "internalType": "address",
          "name": "userRegistry",
          "type": "address"
        },
        {
          "internalType": "address",
          "name": "skillVerification",
          "type": "address"
        },
        {
          "internalType": "address",
          "name": "projectEscrow",
          "type": "address"
        },
        {
          "internalType": "address",
          "name": "skillToken",
          "type": "address"
        },
        {
          "internalType": "address",
          "name": "reputationToken",
          "type": "address"
        }
      ],
      "stateMutability": "nonpayable",
      "type": "constructor"
    },
    {
      "inputs": [],
      "name": "AccessControlBadConfirmation",
      "type": "error"
    },
    {
      "inputs": [
        {
          "internalType": "address",
          "name": "account",
          "type": "address"
        },
        {
          "internalType": "bytes32",
          "name": "neededRole",
          "type": "bytes32"
        }
      ],
      "name": "AccessControlUnauthorizedAccount",
      "type": "error"
    },
    {
      "inputs": [],
      "name": "ReentrancyGuardReentrantCall",
      "type": "error"
    },
    {
      "anonymous": false,
      "inputs": [
        {
          "indexed": true,
          "internalType": "uint256",
          "name": "projectId",
          "type": "uint256"
        },
        {
          "indexed": true,
          "internalType": "address",
          "name": "initiator",
          "type": "address"
        },
        {
          "indexed": false,
          "internalType": "string",
          "name": "reason",
          "type": "string"
        },
        {
          "indexed": false,
          "internalType": "uint256",
          "name": "timestamp",
          "type": "uint256"
        }
      ],
      "name": "DisputeCreated",
      "type": "event"
    },
    {
      "anonymous": false,
      "inputs": [
        {
          "indexed": true,
          "internalType": "uint256",
          "name": "projectId",
          "type": "uint256"
        },
        {
          "indexed": true,
          "internalType": "address",
          "name": "recipient",
          "type": "address"
        },
        {
          "indexed": false,
          "internalType": "uint256",
          "name": "amount",
          "type": "uint256"
        },
        {
          "indexed": false,
          "internalType": "uint256",
          "name": "timestamp",
          "type": "uint256"
        }
      ],
      "name": "PaymentReleased",
      "type": "event"
    },
    {
      "anonymous": false,
      "inputs": [
        {
          "indexed": true,
          "internalType": "uint256",
          "name": "projectId",
          "type": "uint256"
        },
        {
          "indexed": true,
          "internalType": "address",
          "name": "client",
          "type": "address"
        },
        {
          "indexed": true,
          "internalType": "address",
          "name": "freelancer",
          "type": "address"
        },
        {
          "indexed": false,
          "internalType": "uint256",
          "name": "amount",
          "type": "uint256"
        },
        {
          "indexed": false,
          "internalType": "uint256",
          "name": "deadline",
          "type": "uint256"
        }
      ],
      "name": "ProjectCreated",
      "type": "event"
    },
    {
      "anonymous": false,
      "inputs": [
        {
          "indexed": true,
          "internalType": "uint256",
          "name": "projectId",
          "type": "uint256"
        },
        {
          "indexed": false,
          "internalType": "enum ISkillPlatform.ProjectStatus",
          "name": "status",
          "type": "uint8"
        },
        {
          "indexed": false,
          "internalType": "uint256",
          "name": "timestamp",
          "type": "uint256"
        }
      ],
      "name": "ProjectStatusUpdated",
      "type": "event"
    },
    {
      "anonymous": false,
      "inputs": [
        {
          "indexed": true,
          "internalType": "bytes32",
          "name": "role",
          "type": "bytes32"
        },
        {
          "indexed": true,
          "internalType": "bytes32",
          "name": "previousAdminRole",
          "type": "bytes32"
        },
        {
          "indexed": true,
          "internalType": "bytes32",
          "name": "newAdminRole",
          "type": "bytes32"
        }
      ],
      "name": "RoleAdminChanged",
      "type": "event"
    },
    {
      "anonymous": false,
      "inputs": [
        {
          "indexed": true,
          "internalType": "bytes32",
          "name": "role",
          "type": "bytes32"
        },
        {
          "indexed": true,
          "internalType": "address",
          "name": "account",
          "type": "address"
        },
        {
          "indexed": true,
          "internalType": "address",
          "name": "sender",
          "type": "address"
        }
      ],
      "name": "RoleGranted",
      "type": "event"
    },
    {
      "anonymous": false,
      "inputs": [
        {
          "indexed": true,
          "internalType": "bytes32",
          "name": "role",
          "type": "bytes32"
        },
        {
          "indexed": true,
          "internalType": "address",
          "name": "account",
          "type": "address"
        },
        {
          "indexed": true,
          "internalType": "address",
          "name": "sender",
          "type": "address"
        }
      ],
      "name": "RoleRevoked",
      "type": "event"
    },
    {
      "inputs": [],
      "name": "ADMIN_ROLE",
      "outputs": [
        {
          "internalType": "bytes32",
          "name": "",
          "type": "bytes32"
        }
      ],
      "stateMutability": "view",
      "type": "function"
    },
    {
      "inputs": [],
      "name": "DEFAULT_ADMIN_ROLE",
      "outputs": [
        {
          "internalType": "bytes32",
          "name": "",
          "type": "bytes32"
        }
      ],
      "stateMutability": "view",
      "type": "function"
    },
    {
      "inputs": [],
      "name": "MODERATOR_ROLE",
      "outputs": [
        {
          "internalType": "bytes32",
          "name": "",
          "type": "bytes32"
        }
      ],
      "stateMutability": "view",
      "type": "function"
    },
    {
      "inputs": [
        {
          "internalType": "uint256",
          "name": "_projectId",
          "type": "uint256"
        },
        {
          "internalType": "string",
          "name": "_reason",
          "type": "string"
        }
      ],
      "name": "createDispute",
      "outputs": [],
      "stateMutability": "nonpayable",
      "type": "function"
    },
    {
      "inputs": [
        {
          "internalType": "address",
          "name": "_freelancer",
          "type": "address"
        },
        {
          "internalType": "uint256",
          "name": "_amount",
          "type": "uint256"
        },
        {
          "internalType": "uint256",
          "name": "_deadline",
          "type": "uint256"
        },
        {
          "internalType": "string",
          "name": "_metadata",
          "type": "string"
        }
      ],
      "name": "createProject",
      "outputs": [
        {
          "internalType": "uint256",
          "name": "projectId",
          "type": "uint256"
        }
      ],
      "stateMutability": "payable",
      "type": "function"
    },
    {
      "inputs": [
        {
          "internalType": "address",
          "name": "_client",
          "type": "address"
        }
      ],
      "name": "getClientProjects",
      "outputs": [
        {
          "components": [
            {
              "internalType": "uint256",
              "name": "id",
              "type": "uint256"
            },
            {
              "internalType": "address",
              "name": "client",
              "type": "address"
            },
            {
              "internalType": "address",
              "name": "freelancer",
              "type": "address"
            },
            {
              "internalType": "uint256",
              "name": "amount",
              "type": "uint256"
            },
            {
              "internalType": "uint256",
              "name": "deadline",
              "type": "uint256"
            },
            {
              "internalType": "enum ISkillPlatform.ProjectStatus",
              "name": "status",
              "type": "uint8"
            },
            {
              "internalType": "uint256",
              "name": "createdAt",
              "type": "uint256"
            },
            {
              "internalType": "uint256",
              "name": "updatedAt",
              "type": "uint256"
            },
            {
              "internalType": "string",
              "name": "metadata",
              "type": "string"
            }
          ],
          "internalType": "struct ISkillPlatform.Project[]",
          "name": "",
          "type": "tuple[]"
        }
      ],
      "stateMutability": "view",
      "type": "function"
    },
    {
      "inputs": [
        {
          "internalType": "address",
          "name": "_freelancer",
          "type": "address"
        }
      ],
      "name": "getFreelancerProjects",
      "outputs": [
        {
          "components": [
            {
              "internalType": "uint256",
              "name": "id",
              "type": "uint256"
            },
            {
              "internalType": "address",
              "name": "client",
              "type": "address"
            },
            {
              "internalType": "address",
              "name": "freelancer",
              "type": "address"
            },
            {
              "internalType": "uint256",
              "name": "amount",
              "type": "uint256"
            },
            {
              "internalType": "uint256",
              "name": "deadline",
              "type": "uint256"
            },
            {
              "internalType": "enum ISkillPlatform.ProjectStatus",
              "name": "status",
              "type": "uint8"
            },
            {
              "internalType": "uint256",
              "name": "createdAt",
              "type": "uint256"
            },
            {
              "internalType": "uint256",
              "name": "updatedAt",
              "type": "uint256"
            },
            {
              "internalType": "string",
              "name": "metadata",
              "type": "string"
            }
          ],
          "internalType": "struct ISkillPlatform.Project[]",
          "name": "",
          "type": "tuple[]"
        }
      ],
      "stateMutability": "view",
      "type": "function"
    },
    {
      "inputs": [
        {
          "internalType": "uint256",
          "name": "_projectId",
          "type": "uint256"
        }
      ],
      "name": "getProject",
      "outputs": [
        {
          "components": [
            {
              "internalType": "uint256",
              "name": "id",
              "type": "uint256"
            },
            {
              "internalType": "address",
              "name": "client",
              "type": "address"
            },
            {
              "internalType": "address",
              "name": "freelancer",
              "type": "address"
            },
            {
              "internalType": "uint256",
              "name": "amount",
              "type": "uint256"
            },
            {
              "internalType": "uint256",
              "name": "deadline",
              "type": "uint256"
            },
            {
              "internalType": "enum ISkillPlatform.ProjectStatus",
              "name": "status",
              "type": "uint8"
            },
            {
              "internalType": "uint256",
              "name": "createdAt",
              "type": "uint256"
            },
            {
              "internalType": "uint256",
              "name": "updatedAt",
              "type": "uint256"
            },
            {
              "internalType": "string",
              "name": "metadata",
              "type": "string"
            }
          ],
          "internalType": "struct ISkillPlatform.Project",
          "name": "",
          "type": "tuple"
        }
      ],
      "stateMutability": "view",
      "type": "function"
    },
    {
      "inputs": [
        {
          "internalType": "bytes32",
          "name": "role",
          "type": "bytes32"
        }
      ],
      "name": "getRoleAdmin",
      "outputs": [
        {
          "internalType": "bytes32",
          "name": "",
          "type": "bytes32"
        }
      ],
      "stateMutability": "view",
      "type": "function"
    },
    {
      "inputs": [
        {
          "internalType": "bytes32",
          "name": "role",
          "type": "bytes32"
        },
        {
          "internalType": "address",
          "name": "account",
          "type": "address"
        }
      ],
      "name": "grantRole",
      "outputs": [],
      "stateMutability": "nonpayable",
      "type": "function"
    },
    {
      "inputs": [
        {
          "internalType": "bytes32",
          "name": "role",
          "type": "bytes32"
        },
        {
          "internalType": "address",
          "name": "account",
          "type": "address"
        }
      ],
      "name": "hasRole",
      "outputs": [
        {
          "internalType": "bool",
          "name": "",
          "type": "bool"
        }
      ],
      "stateMutability": "view",
      "type": "function"
    },
    {
      "inputs": [],
      "name": "platformFeeRate",
      "outputs": [
        {
          "internalType": "uint256",
          "name": "",
          "type": "uint256"
        }
      ],
      "stateMutability": "view",
      "type": "function"
    },
    {
      "inputs": [
        {
          "internalType": "uint256",
          "name": "_projectId",
          "type": "uint256"
        }
      ],
      "name": "releasePayment",
      "outputs": [],
      "stateMutability": "nonpayable",
      "type": "function"
    },
    {
      "inputs": [
        {
          "internalType": "bytes32",
          "name": "role",
          "type": "bytes32"
        },
        {
          "internalType": "address",
          "name": "callerConfirmation",
          "type": "address"
        }
      ],
      "name": "renounceRole",
      "outputs": [],
      "stateMutability": "nonpayable",
      "type": "function"
    },
    {
      "inputs": [
        {
          "internalType": "uint256",
          "name": "_projectId",
          "type": "uint256"
        },
        {
          "internalType": "uint8",
          "name": "_clientShare",
          "type": "uint8"
        },
        {
          "internalType": "uint8",
          "name": "_freelancerShare",
          "type": "uint8"
        }
      ],
      "name": "resolveDispute",
      "outputs": [],
      "stateMutability": "nonpayable",
      "type": "function"
    },
    {
      "inputs": [
        {
          "internalType": "bytes32",
          "name": "role",
          "type": "bytes32"
        },
        {
          "internalType": "address",
          "name": "account",
          "type": "address"
        }
      ],
      "name": "revokeRole",
      "outputs": [],
      "stateMutability": "nonpayable",
      "type": "function"
    },
    {
      "inputs": [
        {
          "internalType": "uint256",
          "name": "_feeRate",
          "type": "uint256"
        }
      ],
      "name": "setPlatformFeeRate",
      "outputs": [],
      "stateMutability": "nonpayable",
      "type": "function"
    },
    {
      "inputs": [
        {
          "internalType": "bytes4",
          "name": "interfaceId",
          "type": "bytes4"
        }
      ],
      "name": "supportsInterface",
      "outputs": [
        {
          "internalType": "bool",
          "name": "",
          "type": "bool"
        }
      ],
      "stateMutability": "view",
      "type": "function"
    },
    {
      "inputs": [
        {
          "internalType": "uint256",
          "name": "_projectId",
          "type": "uint256"
        },
        {
          "internalType": "enum ISkillPlatform.ProjectStatus",
          "name": "_status",
          "type": "uint8"
        }
      ],
      "name": "updateProjectStatus",
      "outputs": [],
      "stateMutability": "nonpayable",
      "type": "function"
    }
  ],
  "bytecode": "0x60806040523480156200001157600080fd5b506040516200320c3803806200320c8339810160408190526200003491620001d5565b600180556200004560008762000109565b50620000727fa49807205ce4d355092ef5a8a18f56e8913cf4a201fbe287825b095693c217758762000109565b506200009f7f71f3d55856e4058ed06ee057d79ada615f65cdf5f9ee88181b914225088f834f8762000109565b50600680546001600160a01b03199081166001600160a01b03978816179091556007805482169587169590951790945560088054851693861693909317909255600980548416918516919091179055600a805490921692169190911790555060fa600b5562000256565b6000828152602081815260408083206001600160a01b038516845290915281205460ff16620001ae576000838152602081815260408083206001600160a01b03861684529091529020805460ff19166001179055620001653390565b6001600160a01b0316826001600160a01b0316847f2f8788117e7eff1d82e926ec794901d17c78024a50270940304540a733656f0d60405160405180910390a4506001620001b2565b5060005b92915050565b80516001600160a01b0381168114620001d057600080fd5b919050565b60008060008060008060c08789031215620001ef57600080fd5b620001fa87620001b8565b95506200020a60208801620001b8565b94506200021a60408801620001b8565b93506200022a60608801620001b8565b92506200023a60808801620001b8565b91506200024a60a08801620001b8565b90509295509295509295565b612fa680620002666000396000f3fe6080604052600436106101145760003560e01c806391d14854116100a0578063c954e7ac11610064578063c954e7ac14610326578063d11d498b14610339578063d547741f14610359578063eeca08f014610379578063f0f3f2c81461038f57600080fd5b806391d1485414610291578063927fef2e146102b15780639a8b3d8f146102d15780639c32c447146102f1578063a217fddf1461031157600080fd5b80632f2ff15d116100e75780632f2ff15d146101db57806336568abe146101fb57806375b238fc1461021b578063797669c91461024f57806388685cd91461027157600080fd5b806301ffc9a7146101195780630ad0e2541461014e578063248a9ca3146101705780632c2ee6e3146101ae575b600080fd5b34801561012557600080fd5b5061013961013436600461246e565b6103bc565b60405190151581526020015b60405180910390f35b34801561015a57600080fd5b5061016e6101693660046124b5565b6103f3565b005b34801561017c57600080fd5b506101a061018b3660046124f1565b60009081526020819052604090206001015490565b604051908152602001610145565b3480156101ba57600080fd5b506101ce6101c936600461251f565b610722565b6040516101459190612657565b3480156101e757600080fd5b5061016e6101f63660046126b9565b610979565b34801561020757600080fd5b5061016e6102163660046126b9565b6109a4565b34801561022757600080fd5b506101a07fa49807205ce4d355092ef5a8a18f56e8913cf4a201fbe287825b095693c2177581565b34801561025b57600080fd5b506101a0600080516020612f3183398151915281565b34801561027d57600080fd5b5061016e61028c3660046124f1565b6109dc565b34801561029d57600080fd5b506101396102ac3660046126b9565b610cd0565b3480156102bd57600080fd5b5061016e6102cc3660046124f1565b610cf9565b3480156102dd57600080fd5b506101ce6102ec36600461251f565b610d8d565b3480156102fd57600080fd5b5061016e61030c366004612732565b610fdc565b34801561031d57600080fd5b506101a0600081565b6101a061033436600461277e565b6112c0565b34801561034557600080fd5b5061016e6103543660046127f5565b611888565b34801561036557600080fd5b5061016e6103743660046126b9565b611e59565b34801561038557600080fd5b506101a0600b5481565b34801561039b57600080fd5b506103af6103aa3660046124f1565b611e7e565b604051610145919061281a565b60006001600160e01b03198216637965db0b60e01b14806103ed57506301ffc9a760e01b6001600160e01b03198316145b92915050565b600080516020612f3183398151915261040b81611ff0565b6000848152600360205260409020805485146104425760405162461bcd60e51b81526004016104399061282d565b60405180910390fd5b6004600582015460ff16600481111561045d5761045d61253c565b146104b65760405162461bcd60e51b815260206004820152602360248201527f536b696c6c506c6174666f726d3a2070726f6a656374206e6f742064697370756044820152621d195960ea1b6064820152608401610439565b60646104c28486612888565b60ff1611156105295760405162461bcd60e51b815260206004820152602d60248201527f536b696c6c506c6174666f726d3a20736861726573206d7573742073756d207460448201526c6f20313030206f72206c65737360981b6064820152608401610439565b600854604051637760e53960e11b8152600481018790526000916001600160a01b03169063eec1ca7290602401600060405180830381865afa158015610573573d6000803e3d6000fd5b505050506040513d6000823e601f3d908101601f1916820160405261059b919081019061294b565b905060005b81518110156106895760048282815181106105bd576105bd612a6d565b602002602001015160a0015160048111156105da576105da61253c565b036106775760085482516001600160a01b0390911690630ad0e2549084908490811061060857610608612a6d565b6020908102919091010151516040516001600160e01b031960e084901b168152600481019190915260ff808a16602483015288166044820152606401600060405180830381600087803b15801561065e57600080fd5b505af1158015610672573d6000803e3d6000fd5b505050505b8061068181612a83565b9150506105a0565b5060058201805460ff1916600290811790915542600784018190556040518892600080516020612f51833981519152926106c292612a9c565b60405180910390a260ff84161561071a57600060648560ff1684600301546106ea9190612ab7565b6106f49190612ace565b60018401546002850154919250610718916001600160a01b03918216911683611ffd565b505b505050505050565b6001600160a01b038116600090815260056020908152604080832080548251818502810185019093528083526060949383018282801561078157602002820191906000526020600020905b81548152602001906001019080831161076d575b505050505090506000815167ffffffffffffffff8111156107a4576107a46128a1565b6040519080825280602002602001820160405280156107dd57816020015b6107ca612422565b8152602001906001900390816107c25790505b50905060005b8251811015610971576003600084838151811061080257610802612a6d565b60209081029190910181015182528181019290925260409081016000208151610120810183528154815260018201546001600160a01b0390811694820194909452600282015490931691830191909152600381015460608301526004808201546080840152600582015460a084019160ff909116908111156108865761088661253c565b60048111156108975761089761253c565b815260200160068201548152602001600782015481526020016008820180546108bf90612af0565b80601f01602080910402602001604051908101604052809291908181526020018280546108eb90612af0565b80156109385780601f1061090d57610100808354040283529160200191610938565b820191906000526020600020905b81548152906001019060200180831161091b57829003601f168201915b50505050508152505082828151811061095357610953612a6d565b6020026020010181905250808061096990612a83565b9150506107e3565b509392505050565b60008281526020819052604090206001015461099481611ff0565b61099e83836122be565b50505050565b6001600160a01b03811633146109cd5760405163334bd91960e11b815260040160405180910390fd5b6109d78282612350565b505050565b600081815260036020526040902080548214610a0a5760405162461bcd60e51b81526004016104399061282d565b60018101546001600160a01b0316331480610a385750610a38600080516020612f3183398151915233610cd0565b610a545760405162461bcd60e51b815260040161043990612b2a565b6001600582015460ff166004811115610a6f57610a6f61253c565b14610acb5760405162461bcd60e51b815260206004820152602660248201527f536b696c6c506c6174666f726d3a2070726f6a656374206e6f7420696e2070726044820152656f677265737360d01b6064820152608401610439565b600854604051637760e53960e11b8152600481018490526000916001600160a01b03169063eec1ca7290602401600060405180830381865afa158015610b15573d6000803e3d6000fd5b505050506040513d6000823e601f3d908101601f19168201604052610b3d919081019061294b565b905060005b8151811015610c19576001828281518110610b5f57610b5f612a6d565b602002602001015160a001516004811115610b7c57610b7c61253c565b03610c075760085482516001600160a01b039091169063ed65316490849084908110610baa57610baa612a6d565b6020026020010151600001516040518263ffffffff1660e01b8152600401610bd491815260200190565b600060405180830381600087803b158015610bee57600080fd5b505af1158015610c02573d6000803e3d6000fd5b505050505b80610c1181612a83565b915050610b42565b5060058201805460ff1916600290811790915542600784018190556040518592600080516020612f5183398151915292610c5292612a9c565b60405180910390a260028201546003830154604080519182524260208301526001600160a01b039092169185917f8cdc8dc08e54a4e57f52077ecf1b4c508758513439cae2aa325dcc85b922fca8910160405180910390a36001820154600283015460038401546109d7926001600160a01b03908116921690611ffd565b6000918252602082815260408084206001600160a01b0393909316845291905290205460ff1690565b7fa49807205ce4d355092ef5a8a18f56e8913cf4a201fbe287825b095693c21775610d2381611ff0565b6103e8821115610d875760405162461bcd60e51b815260206004820152602960248201527f536b696c6c506c6174666f726d3a2066656520726174652063616e6e6f74206560448201526878636565642031302560b81b6064820152608401610439565b50600b55565b6001600160a01b0381166000908152600460209081526040808320805482518185028101850190935280835260609493830182828015610dec57602002820191906000526020600020905b815481526020019060010190808311610dd8575b505050505090506000815167ffffffffffffffff811115610e0f57610e0f6128a1565b604051908082528060200260200182016040528015610e4857816020015b610e35612422565b815260200190600190039081610e2d5790505b50905060005b82518110156109715760036000848381518110610e6d57610e6d612a6d565b60209081029190910181015182528181019290925260409081016000208151610120810183528154815260018201546001600160a01b0390811694820194909452600282015490931691830191909152600381015460608301526004808201546080840152600582015460a084019160ff90911690811115610ef157610ef161253c565b6004811115610f0257610f0261253c565b81526020016006820154815260200160078201548152602001600882018054610f2a90612af0565b80601f0160208091040260200160405190810160405280929190818152602001828054610f5690612af0565b8015610fa35780601f10610f7857610100808354040283529160200191610fa3565b820191906000526020600020905b815481529060010190602001808311610f8657829003601f168201915b505050505081525050828281518110610fbe57610fbe612a6d565b60200260200101819052508080610fd490612a83565b915050610e4e565b60008381526003602052604090208054841461100a5760405162461bcd60e51b81526004016104399061282d565b60018101546001600160a01b0316331480611031575060028101546001600160a01b031633145b61104d5760405162461bcd60e51b815260040161043990612b2a565b6000600582015460ff1660048111156110685761106861253c565b148061108c57506001600582015460ff16600481111561108a5761108a61253c565b145b6110ea5760405162461bcd60e51b815260206004820152602960248201527f536b696c6c506c6174666f726d3a2070726f6a6563742063616e6e6f7420626560448201526808191a5cdc1d5d195960ba1b6064820152608401610439565b60058101805460ff1916600490811790915542600783018190556040518692600080516020612f518339815191529261112292612a9c565b60405180910390a2336001600160a01b0316847f339d07165413a188c3ea51070102fc4cef16ba47d198db63ca43df7d6448cbcd85854260405161116893929190612b8a565b60405180910390a3600854604051637760e53960e11b8152600481018690526000916001600160a01b03169063eec1ca7290602401600060405180830381865afa1580156111ba573d6000803e3d6000fd5b505050506040513d6000823e601f3d908101601f191682016040526111e2919081019061294b565b905060005b815181101561071a57600182828151811061120457611204612a6d565b602002602001015160a0015160048111156112215761122161253c565b036112ae5760085482516001600160a01b0390911690639f5644fd9084908490811061124f5761124f612a6d565b60200260200101516000015187876040518463ffffffff1660e01b815260040161127b93929190612bae565b600060405180830381600087803b15801561129557600080fd5b505af11580156112a9573d6000803e3d6000fd5b505050505b806112b881612a83565b9150506111e7565b60006112ca6123bb565b600654604051630b1fba9160e11b81523360048201526001600160a01b039091169063163f752290602401602060405180830381865afa158015611312573d6000803e3d6000fd5b505050506040513d601f19601f820116820180604052508101906113369190612bc8565b61138e5760405162461bcd60e51b8152602060048201526024808201527f536b696c6c506c6174666f726d3a20636c69656e74206e6f7420726567697374604482015263195c995960e21b6064820152608401610439565b600654604051630b1fba9160e11b81526001600160a01b0388811660048301529091169063163f752290602401602060405180830381865afa1580156113d8573d6000803e3d6000fd5b505050506040513d601f19601f820116820180604052508101906113fc9190612bc8565b6114595760405162461bcd60e51b815260206004820152602860248201527f536b696c6c506c6174666f726d3a20667265656c616e636572206e6f7420726560448201526719da5cdd195c995960c21b6064820152608401610439565b600085116114be5760405162461bcd60e51b815260206004820152602c60248201527f536b696c6c506c6174666f726d3a20616d6f756e74206d75737420626520677260448201526b06561746572207468616e20360a41b6064820152608401610439565b4284116115235760405162461bcd60e51b815260206004820152602d60248201527f536b696c6c506c6174666f726d3a20646561646c696e65206d7573742062652060448201526c696e207468652066757475726560981b6064820152608401610439565b84341461158a5760405162461bcd60e51b815260206004820152602f60248201527f536b696c6c506c6174666f726d3a2073656e742076616c756520646f6573206e60448201526e1bdd081b585d18da08185b5bdd5b9d608a1b6064820152608401610439565b6002805490600061159a83612a83565b9190505590506000604051806101200160405280838152602001336001600160a01b03168152602001886001600160a01b03168152602001878152602001868152602001600060048111156115f1576115f161253c565b815260200142815260200142815260200185858080601f0160208091040260200160405190810160405280939291908181526020018383808284376000920182905250939094525050848152600360208181526040928390208551815590850151600180830180546001600160a01b039384166001600160a01b03199182161790915594870151600284018054919093169516949094179055606085015191810191909155608084015160048083019190915560a085015160058301805496975087969395509093909260ff19169184908111156116d1576116d161253c565b021790555060c0820151600682015560e0820151600782015561010082015160088201906116ff9082612c30565b5050336000818152600460208181526040808420805460018082018355918652838620018990556001600160a01b038e811680875260058552838720805493840181558752938620909101899055600854915163fe51c93160e01b815293840189905260248401959095526044830191909152606482018b905291935091169063fe51c931906084016020604051808303816000875af11580156117a7573d6000803e3d6000fd5b505050506040513d601f19601f820116820180604052508101906117cb9190612cf0565b60085460405163c9c31af560e01b8152600481018390529192506001600160a01b03169063c9c31af59089906024016000604051808303818588803b15801561181357600080fd5b505af1158015611827573d6000803e3d6000fd5b5050604080518b8152602081018b90526001600160a01b038d1694503393508792507f022cbdd9511184d551c50ef4eb9f6cb10fd9d48ed05447898fc9aef4b50a0053910160405180910390a4505061187f60018055565b95945050505050565b6000828152600360205260409020805483146118b65760405162461bcd60e51b81526004016104399061282d565b60018101546001600160a01b03163314806118dd575060028101546001600160a01b031633145b806118fb57506118fb600080516020612f3183398151915233610cd0565b6119175760405162461bcd60e51b815260040161043990612b2a565b60018101546001600160a01b03163303611a2c57600382600481111561193f5761193f61253c565b14801561196457506000600582015460ff1660048111156119625761196261253c565b145b806119a35750600282600481111561197e5761197e61253c565b1480156119a357506001600582015460ff1660048111156119a1576119a161253c565b145b806119bf575060048260048111156119bd576119bd61253c565b145b611a275760405162461bcd60e51b815260206004820152603360248201527f536b696c6c506c6174666f726d3a20696e76616c696420737461747573207472604482015272185b9cda5d1a5bdb88199bdc8818db1a595b9d606a1b6064820152608401610439565b611b07565b60028101546001600160a01b03163303611b07576001826004811115611a5457611a5461253c565b148015611a7957506000600582015460ff166004811115611a7757611a7761253c565b145b80611a9557506004826004811115611a9357611a9361253c565b145b611b075760405162461bcd60e51b815260206004820152603760248201527f536b696c6c506c6174666f726d3a20696e76616c69642073746174757320747260448201527f616e736974696f6e20666f7220667265656c616e6365720000000000000000006064820152608401610439565b60058101805483919060ff19166001836004811115611b2857611b2861253c565b021790555042600782018190556040518491600080516020612f5183398151915291611b55918691612a9c565b60405180910390a26002826004811115611b7157611b7161253c565b03611ceb57600854604051637760e53960e11b8152600481018590526000916001600160a01b03169063eec1ca7290602401600060405180830381865afa158015611bc0573d6000803e3d6000fd5b505050506040513d6000823e601f3d908101601f19168201604052611be8919081019061294b565b905060005b8151811015611cc4576001828281518110611c0a57611c0a612a6d565b602002602001015160a001516004811115611c2757611c2761253c565b03611cb25760085482516001600160a01b039091169063ed65316490849084908110611c5557611c55612a6d565b6020026020010151600001516040518263ffffffff1660e01b8152600401611c7f91815260200190565b600060405180830381600087803b158015611c9957600080fd5b505af1158015611cad573d6000803e3d6000fd5b505050505b80611cbc81612a83565b915050611bed565b5060018201546002830154600384015461099e926001600160a01b03908116921690611ffd565b6003826004811115611cff57611cff61253c565b036109d757600854604051637760e53960e11b8152600481018590526000916001600160a01b03169063eec1ca7290602401600060405180830381865afa158015611d4e573d6000803e3d6000fd5b505050506040513d6000823e601f3d908101601f19168201604052611d76919081019061294b565b905060005b8151811015611e52576001828281518110611d9857611d98612a6d565b602002602001015160a001516004811115611db557611db561253c565b03611e405760085482516001600160a01b039091169063356f9dfd90849084908110611de357611de3612a6d565b6020026020010151600001516040518263ffffffff1660e01b8152600401611e0d91815260200190565b600060405180830381600087803b158015611e2757600080fd5b505af1158015611e3b573d6000803e3d6000fd5b505050505b80611e4a81612a83565b915050611d7b565b5050505050565b600082815260208190526040902060010154611e7481611ff0565b61099e8383612350565b611e86612422565b6000828152600360205260409020548214611eb35760405162461bcd60e51b81526004016104399061282d565b6000828152600360208181526040928390208351610120810185528154815260018201546001600160a01b03908116938201939093526002820154909216938201939093529082015460608201526004808301546080830152600583015491929160a084019160ff90911690811115611f2e57611f2e61253c565b6004811115611f3f57611f3f61253c565b81526020016006820154815260200160078201548152602001600882018054611f6790612af0565b80601f0160208091040260200160405190810160405280929190818152602001828054611f9390612af0565b8015611fe05780601f10611fb557610100808354040283529160200191611fe0565b820191906000526020600020905b815481529060010190602001808311611fc357829003601f168201915b5050505050815250509050919050565b611ffa81336123e5565b50565b600061271061200d836064612ab7565b6120179190612ace565b905060006127106120298460c8612ab7565b6120339190612ace565b6009546040516340c10f1960e01b81526001600160a01b038881166004830152602482018690529293509116906340c10f1990604401600060405180830381600087803b15801561208357600080fd5b505af1158015612097573d6000803e3d6000fd5b50506009546040516340c10f1960e01b81526001600160a01b0388811660048301526024820186905290911692506340c10f199150604401600060405180830381600087803b1580156120e957600080fd5b505af11580156120fd573d6000803e3d6000fd5b5050600654604051634c3f70ab60e11b81526001600160a01b03888116600483015260009450909116915063987ee15690602401600060405180830381865afa15801561214e573d6000803e3d6000fd5b505050506040513d6000823e601f3d908101601f191682016040526121769190810190612d93565b905060008160800151600a61218b9190612e54565b600654604051631eb9234160e31b81526001600160a01b0389811660048301526024820184905292935091169063f5c91a0890604401600060405180830381600087803b1580156121db57600080fd5b505af11580156121ef573d6000803e3d6000fd5b5050505060006003600060016002546122089190612e67565b81526020019081526020016000206008016040516020016122299190612e7a565b60408051601f1981840301815290829052600a5463bb7fde7160e01b83529092506001600160a01b03169063bb7fde7190612270908a906001906050908790600401612f03565b6020604051808303816000875af115801561228f573d6000803e3d6000fd5b505050506040513d601f19601f820116820180604052508101906122b39190612cf0565b505050505050505050565b60006122ca8383610cd0565b612348576000838152602081815260408083206001600160a01b03861684529091529020805460ff191660011790556123003390565b6001600160a01b0316826001600160a01b0316847f2f8788117e7eff1d82e926ec794901d17c78024a50270940304540a733656f0d60405160405180910390a45060016103ed565b5060006103ed565b600061235c8383610cd0565b15612348576000838152602081815260408083206001600160a01b0386168085529252808320805460ff1916905551339286917ff6391f5c32d9c69d2a47ea670b442974b53935d1edc7fd64eb21e047a839171b9190a45060016103ed565b6002600154036123de57604051633ee5aeb560e01b815260040160405180910390fd5b6002600155565b6123ef8282610cd0565b61241e5760405163e2517d3f60e01b81526001600160a01b038216600482015260248101839052604401610439565b5050565b604080516101208101825260008082526020820181905291810182905260608101829052608081018290529060a082019081526020016000815260200160008152602001606081525090565b60006020828403121561248057600080fd5b81356001600160e01b03198116811461249857600080fd5b9392505050565b803560ff811681146124b057600080fd5b919050565b6000806000606084860312156124ca57600080fd5b833592506124da6020850161249f565b91506124e86040850161249f565b90509250925092565b60006020828403121561250357600080fd5b5035919050565b6001600160a01b0381168114611ffa57600080fd5b60006020828403121561253157600080fd5b81356124988161250a565b634e487b7160e01b600052602160045260246000fd5b6005811061257057634e487b7160e01b600052602160045260246000fd5b9052565b60005b8381101561258f578181015183820152602001612577565b50506000910152565b600081518084526125b0816020860160208601612574565b601f01601f19169290920160200192915050565b60006101208251845260018060a01b03602084015116602085015260408301516125f960408601826001600160a01b03169052565b50606083015160608501526080830151608085015260a083015161262060a0860182612552565b5060c083015160c085015260e083015160e085015261010080840151828287015261264d83870182612598565b9695505050505050565b6000602080830181845280855180835260408601915060408160051b870101925083870160005b828110156126ac57603f1988860301845261269a8583516125c4565b9450928501929085019060010161267e565b5092979650505050505050565b600080604083850312156126cc57600080fd5b8235915060208301356126de8161250a565b809150509250929050565b60008083601f8401126126fb57600080fd5b50813567ffffffffffffffff81111561271357600080fd5b60208301915083602082850101111561272b57600080fd5b9250929050565b60008060006040848603121561274757600080fd5b83359250602084013567ffffffffffffffff81111561276557600080fd5b612771868287016126e9565b9497909650939450505050565b60008060008060006080868803121561279657600080fd5b85356127a18161250a565b94506020860135935060408601359250606086013567ffffffffffffffff8111156127cb57600080fd5b6127d7888289016126e9565b969995985093965092949392505050565b60058110611ffa57600080fd5b6000806040838503121561280857600080fd5b8235915060208301356126de816127e8565b60208152600061249860208301846125c4565b60208082526025908201527f536b696c6c506c6174666f726d3a2070726f6a65637420646f6573206e6f7420604082015264195e1a5cdd60da1b606082015260800190565b634e487b7160e01b600052601160045260246000fd5b60ff81811683821601908111156103ed576103ed612872565b634e487b7160e01b600052604160045260246000fd5b604051610100810167ffffffffffffffff811182821017156128db576128db6128a1565b60405290565b60405160e0810167ffffffffffffffff811182821017156128db576128db6128a1565b604051601f8201601f1916810167ffffffffffffffff8111828210171561292d5761292d6128a1565b604052919050565b80516124b08161250a565b80516124b0816127e8565b6000602080838503121561295e57600080fd5b825167ffffffffffffffff8082111561297657600080fd5b818501915085601f83011261298a57600080fd5b81518181111561299c5761299c6128a1565b6129aa848260051b01612904565b818152848101925060089190911b8301840190878211156129ca57600080fd5b928401925b81841015612a625761010084890312156129e95760008081fd5b6129f16128b7565b845181528585015186820152604080860151612a0c8161250a565b908201526060612a1d868201612935565b908201526080858101519082015260a0612a38818701612940565b9082015260c0858101519082015260e08086015190820152835261010090930192918401916129cf565b979650505050505050565b634e487b7160e01b600052603260045260246000fd5b600060018201612a9557612a95612872565b5060010190565b60408101612aaa8285612552565b8260208301529392505050565b80820281158282048414176103ed576103ed612872565b600082612aeb57634e487b7160e01b600052601260045260246000fd5b500490565b600181811c90821680612b0457607f821691505b602082108103612b2457634e487b7160e01b600052602260045260246000fd5b50919050565b6020808252601d908201527f536b696c6c506c6174666f726d3a206e6f7420617574686f72697a6564000000604082015260600190565b81835281816020850137506000828201602090810191909152601f909101601f19169091010190565b604081526000612b9e604083018587612b61565b9050826020830152949350505050565b83815260406020820152600061187f604083018486612b61565b600060208284031215612bda57600080fd5b8151801515811461249857600080fd5b601f8211156109d757600081815260208120601f850160051c81016020861015612c115750805b601f850160051c820191505b8181101561071a57828155600101612c1d565b815167ffffffffffffffff811115612c4a57612c4a6128a1565b612c5e81612c588454612af0565b84612bea565b602080601f831160018114612c935760008415612c7b5750858301515b600019600386901b1c1916600185901b17855561071a565b600085815260208120601f198616915b82811015612cc257888601518255948401946001909101908401612ca3565b5085821015612ce05787850151600019600388901b60f8161c191681555b5050505050600190811b01905550565b600060208284031215612d0257600080fd5b5051919050565b8051600381106124b057600080fd5b8051600481106124b057600080fd5b600082601f830112612d3857600080fd5b815167ffffffffffffffff811115612d5257612d526128a1565b612d65601f8201601f1916602001612904565b818152846020838601011115612d7a57600080fd5b612d8b826020830160208701612574565b949350505050565b600060208284031215612da557600080fd5b815167ffffffffffffffff80821115612dbd57600080fd5b9083019060e08286031215612dd157600080fd5b612dd96128e1565b612de283612935565b8152612df060208401612d09565b6020820152612e0160408401612d18565b6040820152606083015182811115612e1857600080fd5b612e2487828601612d27565b6060830152506080830151608082015260a083015160a082015260c083015160c082015280935050505092915050565b808201808211156103ed576103ed612872565b818103818111156103ed576103ed612872565b66697066733a2f2f60c81b81526000600760008454612e9881612af0565b60018281168015612eb05760018114612ec9576126ac565b60ff1984168887015282151583028801860194506126ac565b8860005260208060002060005b85811015612ef15781548b82018a0152908401908201612ed6565b50505050950190920195945050505050565b60018060a01b038516815283602082015282604082015260806060820152600061264d608083018461259856fe71f3d55856e4058ed06ee057d79ada615f65cdf5f9ee88181b914225088f834fbdfd7c0ddf74e3c7890c18d10645c932a00f65534385fca48936b143724fa60ca264697066735822122065f5653c9edac61443dc719fbd4a61280b4db2ef7de3090e8858fa3e6555202664736f6c63430008140033",
  "linkReferences": {},
  "deployedLinkReferences": {}
}